:020000040800F2
:10000000D0430120354B00083D4B00083F4B000812
:10001000414B0008434B0008454B0008000000001E
:100020000000000000000000000000009D0100082A
:10003000494B000800000000F9010008358A00085B
:100040004F4B00084F4B00084F4B00084F4B000828
:100050004F4B00084F4B00084F4B00084F4B000818
:100060004F4B00084F4B00084F4B00084F4B000808
:100070004F4B00084F4B00084F4B0008459F0008AE
:100080004F4B00084F4B00084F4B00084F4B0008E8
:100090004F4B00084F4B00084F4B00084F4B0008D8
:1000A0004F4B00084F4B00084F4B00084F4B0008C8
:1000B0004F4B00084F4B00084F4B00084F4B0008B8
:1000C0004F4B00084F4B00084F4B00084F4B0008A8
:1000D0004F4B00084F4B00084F4B0008E99E0008AB
:1000E0004F4B00084F4B00084F4B00084F4B000888
:1000F0004F4B00084F4B00084F4B00084F4B000878
:100100004F4B00084F4B00084F4B00084F4B000867
:100110004F4B00084F4B00084F4B00084F4B000857
:100120004F4B00084F4B00084F4B00084F4B000847
:100130004F4B00084F4B00084F4B00084F4B000837
:100140004F4B00084F4B00084F4B0008E1AC000834
:100150004F4B00084F4B00084F4B00084F4B000817
:100160004F4B00084F4B00084F4B00084F4B000807
:100170004F4B00084F4B00084F4B00084F4B0008F7
:100180004F4B00084F4B0008DFF80CD00CF05AFD25
:1001900000480047594B0008D04301202C4B1968F8
:1001A0000868B0E8F04F80F30988BFF36F8F4FF015
:1001B000000080F3118870470000000008480068C4
:1001C000006880F308884FF0000080F3148862B65E
:1001D00061B6BFF34F8FBFF36F8F00DF00BF00BF6B
:1001E00008ED00E0DFF80C00016841F470010160E7
:1001F000704700BF88ED00E0EFF30980BFF36F8F19
:10020000134B1A681EF0100F08BF20ED108A20E96A
:10021000F04F106009B44FF0500080F31188BFF325
:100220004F8FBFF36F8F06F07FFB4FF0000080F31E
:10023000118809BC19680868B0E8F04F1EF0100F6B
:1002400008BFB0EC108A80F30988BFF36F8F704746
:100250003C000020EFF305807047000010B5044615
:10026000B4F5E06F0BD0B4F5C06F08D0B4F5A06F53
:1002700005D0B4F5806F02D0B4F5407F00D103E023
:1002800073215FA004F0EBFC6948204369490860D2
:1002900010BD2DE9F0410446002500270F26E07827
:1002A00010B1E078012800D103E0872154A004F0C8
:1002B000D6FC6078102800DA03E0882150A004F012
:1002C000CEFCA078102800DA03E089214CA004F0CD
:1002D000C6FCE07818B35748006800F4E060C0F549
:1002E000E060C0F30725C5F10400C7B22E41607875
:1002F000B840C5B2A078304005432807050E4E48E7
:1003000021784554207800F01F0101208840217891
:100310004911890001F1E021C1F8000109E02078CC
:1003200000F01F010120884044492278521141F811
:100330002200BDE8F08170B504460D46B4F1005FBF
:1003400002D0B4F1006F00D103E0B1212CA004F081
:1003500086FC3B48854200D203E0B22128A004F08D
:100360007EFC384905EA010020433249091F086034
:1003700070BD70B504460D46102C03D0042C01D07E
:10038000022C00D103E0C4211DA004F068FC0DB1D3
:10039000012D00D103E0C52119A004F060FC3DB19E
:1003A0002448001D006820432249091D086006E01A
:1003B0002048001D0068A0431E49091D086070BD4B
:1003C00010B50446042C01D0601D00B903E0DC2107
:1003D0000BA004F044FC042C08D14FF0E02000698D
:1003E00040F004004FF0E021086107E04FF0E0200A
:1003F000006920F004004FF0E021086110BD00000A
:100400004C69627261726965735C53544D33324654
:100410003478785F5374645065726970685F4472B1
:10042000697665725C7372635C6D6973632E6300D9
:100430000000FA050CED00E000E400E080E100E0DF
:10044000FFFF0F0080FFFF1F10B50446FE488442E7
:100450003AD0FD481830844236D0FB4830308442D0
:1004600032D0F948483084422ED0F7486030844278
:100470002AD0F5487830844226D0F3489030844220
:1004800022D0F148A83084421ED0F04884421BD0CC
:10049000EE481830844217D0EC483030844213D0F4
:1004A000EA48483084420FD0E848603084420BD09C
:1004B000E6487830844207D0E4489030844203D044
:1004C000E248A830844200D103E0BF21E0A004F05C
:1004D000C6FB206820F001002060002020606060E2
:1004E000A060E060206121206061D748844204D18F
:1004F0003D20D549103988608CE0D34818308442BB
:1005000005D14FF47460D0491039886082E0CE483C
:100510003030844205D14FF47410CB4910398860D3
:1005200078E0C9484830844205D14FF07460C6492C
:10053000103988606EE0C4486030844204D1D348EA
:10054000C1491039C86065E0BF487830844204D1A1
:10055000CF48BD491039C8605CE0BB489030844248
:1005600004D1CC48B8491039C86053E0B648A83027
:10057000844205D14FF03D50B3491039C86049E07D
:10058000B248844204D13D20B0490839086041E0B6
:10059000AE481830844205D14FF47460AB49083935
:1005A000086037E0A9483030844205D14FF4741018
:1005B000A649083908602DE0A4484830844205D196
:1005C0004FF07460A1490839086023E09F4860300B
:1005D000844204D1AD489D49091F08601AE09B4838
:1005E0007830844204D1AA489849091F086011E074
:1005F00096489030844204D1A6489449091F086067
:1006000008E09248A830844204D14FF03D508F4911
:10061000091F086010BD70B505460C4600268A48C3
:1006200085423AD088481830854236D086483030E6
:10063000854232D08448483085422ED0824860308E
:1006400085422AD080487830854226D07E48903036
:10065000854222D07C48A83085421ED07B48854206
:100660001BD07A481830854217D078483030854200
:1006700013D07648483085420FD0744860308542A8
:100680000BD072487830854207D070489030854250
:1006900003D06E48A830854200D104E04FF49E712B
:1006A0006BA004F0DCFA2068D8B12068B0F1007FBC
:1006B00017D02068B0F1806F13D02068B0F1C06F00
:1006C0000FD02068B0F1006F0BD02068B0F1206F20
:1006D00007D02068B0F1406F03D02068B0F1606FA0
:1006E00000D104E040F23D1159A004F0B8FAE068EE
:1006F00028B1E068402802D0E068802800D104E0FA
:100700004FF49F7152A004F0AAFA206920B1206929
:10071000B0F5803F00D204E040F23F114CA004F05D
:100720009EFA6069B0F5007F01D0606900B904E00D
:100730004FF4A07146A004F092FAA069B0F5806F62
:1007400001D0A06900B904E040F2411140A004F0DA
:1007500086FAE06938B1E069B0F5006F03D0E0696E
:10076000B0F5805F00D104E04FF4A17138A004F02F
:1007700076FA206A38B1206AB0F5005F03D0206AAB
:10078000B0F5804F00D104E040F2431130A004F0F6
:1007900066FA606A18B1606AB0F5807F00D104E043
:1007A0004FF4A2712AA004F05AFAA06A58B1A06AC4
:1007B000B0F5803F07D0A06AB0F5003F03D0A06A33
:1007C000B0F5403F00D104E040F2451120A004F014
:1007D00046FAE06A10B1E06A042800D104E04FF460
:1007E000A3711BA004F03BFA206B40B1206B0128E1
:1007F00005D0206B022802D0206B032800D104E032
:1008000040F2471112A004F02AFA606B58B1606BF5
:10081000B0F5000F07D0606BB0F1807F03D0606B44
:10082000B0F1C07F00D104E04FF4A47108A004F03F
:1008300016FAA06B80B3A06BB0F5001F31D0A06B8F
:10084000B0F5800F2DD028E0106002401064024007
:100850004C69627261726965735C53544D33324600
:100860003478785F5374645065726970685F44725D
:10087000697665725C7372635C73746D333266346F
:1008800078785F646D612E63000000003D000020F9
:10089000400F002000003D2003E0A06BB0F5C00F2A
:1008A00000D105E040F24911AFF25C0004F0D7F945
:1008B0002E68FE480640E1682068084361690843E5
:1008C000A1690843E1690843216A0843616A084352
:1008D000A16A0843616B0843A16B084306432E607D
:1008E0006E6926F00706D4E90B01084306436E61E2
:1008F000206968606068A860A068E86070BD002139
:10090000016041608160C160016141618161C161DB
:10091000016241628162C162016341638163704728
:1009200070B504460D46E24884423AD0E04818309B
:10093000844236D0DE483030844232D0DC48483001
:1009400084422ED0DA48603084422AD0D8487830A9
:10095000844226D0D6489030844222D0D448A83051
:1009600084421ED0D34884421BD0D24818308442DF
:1009700017D0D0483030844213D0CE48483084421B
:100980000FD0CC48603084420BD0CA4878308442C3
:1009900007D0C8489030844203D0C648A83084426B
:1009A00000D105E040F2D911AFF25C1004F057F924
:1009B0000DB1012D00D105E04FF4ED71AFF27010D3
:1009C00004F04DF925B1206840F00100206003E0FB
:1009D000206820F00100206070BD70B504460D460F
:1009E000B34884423AD0B2481830844236D0B04836
:1009F0003030844232D0AE48483084422ED0AC48A9
:100A0000603084422AD0AA487830844226D0A84850
:100A10009030844222D0A648A83084421ED0A548F7
:100A200084421BD0A3481830844217D0A1483030EC
:100A3000844213D09F48483084420FD09D48603094
:100A400084420BD09B487830844207D0994890303C
:100A5000844203D09748A830844200D105E040F298
:100A6000FD11AFF2142004F0FAF815B1B5F5004FFE
:100A700000D105E04FF4FF71AFF22C2004F0EFF845
:100A800025B1206840F40040206003E0206820F495
:100A90000040206070BD70B504460D468448844215
:100AA0003AD083481830844236D08148303084426E
:100AB00032D07F48483084422ED07D486030844216
:100AC0002AD07B487830844226D0794890308442BE
:100AD00022D07748A83084421ED0764884421BD06A
:100AE00074481830844217D072483030844213D092
:100AF0007048483084420FD06E48603084420BD03A
:100B00006C487830844207D06A489030844203D0E1
:100B10006848A830844200D105E040F22121AFF2BC
:100B2000D02004F09CF80DB1202D00D105E040F25A
:100B30002221AFF2E42004F092F825B1206840F0C1
:100B40002000206003E0206820F02000206070BDBD
:100B500070B504460D46564884423AD05448183081
:100B6000844236D052483030844232D050484830E7
:100B700084422ED04E48603084422AD04C4878308F
:100B8000844226D04A489030844222D04848A83037
:100B900084421ED0474884421BD0464818308442C5
:100BA00017D044483030844213D042484830844201
:100BB0000FD04048603084420BD03E4878308442A9
:100BC00007D03C489030844203D03A48A830844251
:100BD00000D105E040F27521AFF28C3004F03FF80F
:100BE000656070BD10B50446314884423AD0304843
:100BF0001830844236D02E483030844232D02C48CF
:100C0000483084422ED02A48603084422AD0284876
:100C10007830844226D026489030844222D024481E
:100C2000A83084421ED0234884421BD0214818306B
:100C3000844217D01F483030844213D01D484830BA
:100C400084420FD01B48603084420BD01948783062
:100C5000844207D017489030844203D01548A8300A
:100C6000844200D105E04FF42171AFF21C4003F043
:100C7000F6FF606880B210BD70B504460E4615469A
:100C80000B48844240D00A48183084423CD008487F
:100C90003030844238D006484830844234D004484A
:100CA0006030844230D00248783005E03F801CF04C
:100CB0001060024010640240844225D0FE48844205
:100CC00022D0FD48183084421ED0FC4884421BD0FC
:100CD000FA481830844217D0F8483030844213D094
:100CE000F648483084420FD0F448603084420BD03C
:100CF000F2487830844207D0F0489030844203D0E4
:100D0000EE48A830844200D105E040F2D221AFF293
:100D1000C04003F0A4FF15B1B5F5002F00D105E0E8
:100D200040F2D321AFF2D84003F099FF25B12068FB
:100D300040F40020206003E0206820F400202060C0
:100D4000266170BD70B504460D46DB48903884427C
:100D500039D0D9487838844235D0D7486038844271
:100D600031D0D548483884422DD0D34830388442D9
:100D700029D0D1481838844225D0CF48844222D087
:100D8000CD48183084421ED0CC4884421BD0CB487A
:100D90001830844217D0C9483030844213D0C74835
:100DA000483084420FD0C548603084420BD0C348DD
:100DB0007830844207D0C1489030844203D0BF4885
:100DC000A830844200D105E04FF43C71AFF280506E
:100DD00003F045FF0DB1012D00D105E040F2F121F6
:100DE000AFF2945003F03BFF25B1206840F480201F
:100DF000206003E0206820F48020206070BD70B582
:100E000004460E461546AC489038844239D0AA486C
:100E10007838844235D0A8486038844231D0A6481A
:100E2000483884422DD0A4483038844229D0A24882
:100E30001838844225D0A048844222D09E481830D9
:100E400084421ED09D4884421BD09C481830844266
:100E500017D09A483030844213D0984848308442A2
:100E60000FD09648603084420BD09448783084424A
:100E700007D092489030844203D09048A8308442F2
:100E800000D105E040F21A31AFF23C6003F0E7FE1A
:100E900015B1B5F5002F00D105E040F21B31AFF2DE
:100EA000506003F0DCFE0DB1266100E0E66070BD2D
:100EB00070B50446002580489038844239D07E4879
:100EC0007838844235D07C486038844231D07A48C2
:100ED000483884422DD078483038844229D076482A
:100EE0001838844225D07448844222D07248183081
:100EF00084421ED0714884421BD07048183084420E
:100F000017D06E483030844213D06C484830844249
:100F10000FD06A48603084420BD0684878308442F1
:100F200007D066489030844203D06448A830844299
:100F300000D105E040F23531AFF2EC6003F08FFEF6
:100F4000206800F4002008B1012500E000252846B3
:100F500070BD70B50446002557489038844239D09A
:100F600055487838844235D053486038844231D06F
:100F70005148483884422DD04F483038844229D0D7
:100F80004D481838844225D04B48844222D04A48E4
:100F9000183084421ED0494884421BD0474818303C
:100FA000844217D045483030844213D043484830FB
:100FB00084420FD04148603084420BD03F487830A3
:100FC000844207D03D489030844203D03B48A8304B
:100FD000844200D105E040F2A231AFF28C7003F000
:100FE0003EFE206800F0010008B1012500E0002568
:100FF000284670BD70B5044600252F4890388442BD
:1010000039D02D487838844235D02B486038844216
:1010100031D02948483884422DD02748303884427E
:1010200029D025481838844225D02348844222D02C
:101030002148183084421ED0204884421BD01F48CB
:101040001830844217D01D483030844213D01B48DA
:10105000483084420FD01948603084420BD0174882
:101060007830844207D015489030844203D013482A
:10107000A830844200D105E04FF47171AFF6300022
:1010800003F0EDFD606900F03805284670BD2DE9DC
:10109000F04105460C464FF00008002706489038FE
:1010A00085423ED00448783885423AD002486038BC
:1010B000854236D0004803E0A06002401064024040
:1010C000483885422DD0FE4885422AD0FC48183049
:1010D000854226D0FA483030854222D0F848483040
:1010E00085421ED0F74885421BD0F648183085420D
:1010F00017D0F4483030854213D0F248483085424A
:101100000FD0F048603085420BD0EE4878308542F1
:1011100007D0EC489030854203D0EA48A830854299
:1011200000D105E040F2E131AFF6DC0003F097FDBD
:10113000E54884427CD0E4481038844278D0E248C4
:101140001838844274D0E148844271D0C01E844271
:101150006ED0DF4884426BD0DE48844268D0DE48DF
:10116000844265D0D848E030844261D0D6482030EF
:1011700084425DD0B4F1815F5AD0D848844257D0C0
:10118000D748844254D0D748844251D0D64884426C
:101190004ED0B4F1C05F4BD0B4F1A05F48D0B4F1F1
:1011A000905F45D0B4F1885F42D0B4F1825F3FD008
:1011B000CE4884423CD0CD481038844238D0CB4809
:1011C0001838844234D0001F844231D0C01E84427B
:1011D0002ED0C74884422BD0C648844228D0C64867
:1011E000844225D0C148E030844221D0BF4820301D
:1011F00084421DD0C14884421AD0C148844217D0CD
:10120000C048844214D0C048844211D0BF488442B0
:101210000ED0B4F1205F0BD0B4F1105F08D0B4F160
:10122000085F05D0B4F1045F02D0B4F1015F00D1D2
:1012300005E040F2E231AFF6E81003F010FDA148FE
:10124000854202D29E4E703E01E09E4E103E04F05A
:10125000005008B1776800E03768AD48074007EAFA
:10126000040010B14FF0010801E04FF000084046C3
:10127000BDE8F08170B504460D469148603884425F
:1012800039D08F484838844235D08D483038844230
:1012900031D08B48183884422DD0894884422AD0D6
:1012A00087481830844226D085483030844222D086
:1012B0008348483084421ED0824884421BD08148F3
:1012C0001830844217D07F483030844213D07D4894
:1012D000483084420FD07B48603084420BD079483C
:1012E0007830844207D077489030844203D07548E4
:1012F000A830844200D105E040F22241AFF6B02090
:1013000003F0ADFC05F04050B0F1405F07D005F0B0
:10131000405020B17F48284008B905B105E040F2AF
:101320002341AFF6D42003F09AFC6648844202D2EF
:10133000634E703E01E0634E103E05F0005018B160
:1013400073482840F06002E071482840B06070BDEA
:1013500070B504460D46164659486038844239D067
:1013600057484838844235D055483038844231D0C7
:101370005348183884422DD0514884422AD05048CE
:101380001830844226D04E483030844222D04C4817
:10139000483084421ED04B4884421BD04948183004
:1013A000844217D047483030844213D045484830F3
:1013B00084420FD04348603084420BD0414878309B
:1013C000844207D03F489030844203D03D48A83043
:1013D000844200D105E040F24F41AFF68C3003F07B
:1013E0003EFC25F09E0008B905B105E04FF48A6186
:1013F000AFF6A43003F033FC0EB1012E00D105E0AE
:1014000040F25141AFF6B83003F029FC05F08000FE
:1014100048B126B1606940F08000606103E0606916
:1014200020F080006061802D0BD02EB1206805F087
:101430001E010843206004E0206805F01E01884377
:10144000206070BD2DE9F04705460C464FF00008BE
:101450000027B9461A486038854265D01848483890
:10146000854261D01648303885425DD0144818381E
:10147000854259D01248854256D0114818308542CD
:1014800052D00F48303085424ED00D48483085420A
:101490004AD00C48854247D00A481830854243D08C
:1014A0000848303085423FD00648483085423BD01E
:1014B00004486030854237D00248783085422BE0BE
:1014C0007060024010640240200000100400801090
:1014D00000080010000400100002001000001010AE
:1014E000000008100000041000000110200000207F
:1014F000000800200004002000020020000020203E
:10150000000010200000082000000420000001203E
:101510007D0F7D0F82F082C006D09548854203D0B2
:1015200093481830854200D105E040F28741AFF67C
:10153000E04003F094FB8F48844278D08E48844288
:1015400075D08E48844272D08D4884426FD08D48C9
:1015500084426CD08C48844269D08C48844266D0E6
:101560008B48844263D08648FC3084425FD08548F3
:101570003F3084425BD08748844258D086488442BA
:1015800055D08648844252D0854884424FD0854801
:1015900084424CD08448844249D08448844246D016
:1015A0008348844243D08348844240D08248844266
:1015B0003DD0824884423AD08148844237D0814825
:1015C000844234D08048844231D0804884422ED036
:1015D0007F4884422BD07F48844228D07E48844272
:1015E00025D07948FC30844221D078483F3084426D
:1015F0001DD07A4884421AD07948844217D079485D
:10160000844214D07848844211D0784884420ED065
:10161000774884420BD07748844208D07648844289
:1016200005D07648844202D07548844200D105E056
:101630004FF49161AFF6E85003F011FB4C4890383D
:10164000854201D26F4E01E0494EA03E6E482040D7
:1016500030B11E2000EAD427286800EA070902E01A
:10166000686900F0800904F0005008B1776800E074
:1016700037686648074007EA040028B1B9F1000F4F
:1016800002D04FF0010801E04FF000084046BDE8ED
:10169000F08770B504460D465A48103084423AD05F
:1016A00058482830844236D056484030844232D0A0
:1016B0005448583084422ED05248703084422AD048
:1016C00050488830844226D04E48A030844222D0F0
:1016D0004C48B83084421ED02548903884421AD0F5
:1016E00023487838844216D021486038844212D08A
:1016F0001F48483884420ED01D48303884420AD0F2
:101700001B481838844206D01948844203D0184830
:101710001830844200D105E040F2D741AFF6D060E6
:1017200003F09DFA05F04050B0F1405F07D005F09E
:10173000405020B11DB13648284000B905E04FF4B3
:101740009B61AFF6F46003F08AFA0948903884424E
:1017500001D22C4E01E0064EA03E05F0005018B11B
:101760002A482840F06002E028482840B06070BD58
:10177000A0640240208000101040001008200010DB
:1017800004100010010000900088001000440010B8
:1017900000220010008020100040101000200810CF
:1017A0000010041000000190008000180040001498
:1017B0000020001200100011000040902080002046
:1017C000104000200820002004100020010000A08C
:1017D00000880020004400200022002000802020FB
:1017E000004010200020082000100420000001A06C
:1017F000008000280040002400200022001000216A
:10180000000040A0006002403C0F3C0F7D0F7D0FA8
:101810008200824010B50446FA48844217D0FA4844
:10182000844214D0F948844211D0F94884420ED041
:10183000F84884420BD0F848844208D0F7488442E4
:1018400005D0F748844202D0F648844200D103E034
:101850007B21F5A003F003FAEA48844208D1012174
:10186000084601F017F90021012001F013F95EE0AC
:10187000E548844208D10121022001F00BF9002142
:10188000022001F007F952E0E048844208D101212A
:10189000042001F0FFF80021042001F0FBF846E0ED
:1018A000DB48844208D10121082001F0F3F800212F
:1018B000082001F0EFF83AE0D648844208D101212F
:1018C000102001F0E7F80021102001F0E3F82EE0ED
:1018D000D148844208D10121202001F0DBF8002109
:1018E000202001F0D7F822E0CC48844208D1012121
:1018F000402001F0CFF80021402001F0CBF816E0A5
:10190000C748844208D10121802001F0C3F800219A
:10191000802001F0BFF80AE0C248844207D10121CB
:10192000801501F0B7F80021A01501F0B3F810BD43
:101930002DE9F04104460D4600260027B046B14887
:10194000844217D0B048844214D0B048844211D0A9
:10195000AF4884420ED0AF4884420BD0AE48844298
:1019600008D0AE48844205D0AD48844202D0AD488C
:10197000844200D103E0BB21ABA003F070F900204A
:1019800010B9286800B103E0BC21A7A003F067F9F3
:10199000287940B12879012805D02879022802D079
:1019A0002879032800D103E0BD219FA003F057F957
:1019B000E87928B1E879012802D0E879022800D135
:1019C00003E0BE2198A003F04AF9002657E0012069
:1019D00000FA06F7286800EA0708B8454ED12068E3
:1019E000720003219140884320602879710088406B
:1019F0002168084320602879012802D0287902282C
:101A000030D1687940B16879012805D06879022819
:101A100002D06879032800D103E0D02182A003F02E
:101A20001EF9A0687200032191408843A060687984
:101A300071008840A1680843A060A87910B1A87916
:101A4000012800D103E0D72177A003F008F96168ED
:101A50000120B040814361606068A979B14089B2DA
:101A600008436060E0687200032191408843E060B1
:101A7000E87971008840E1680843E060761C102E28
:101A8000A5D3BDE8F0814FF6FF710160002101711F
:101A900041718171C171704738B504460D464FF4EC
:101AA000803000905748844217D05748844214D061
:101AB0005648844211D0564884420ED0554884423C
:101AC0000BD05548844208D05448844205D054482D
:101AD000844202D05348844200D104E04FF4827122
:101AE00051A003F0BCF8002008B905B104E040F2B1
:101AF00005114DA003F0B3F800982843009000981A
:101B0000E061E5610098E061E0690090E0690090C3
:101B100038BD70B505460C4600263A48854217D0B8
:101B20003948854214D03948854211D03848854219
:101B30000ED0384885420BD03748854208D0374808
:101B4000854205D03648854202D03648854200D1CC
:101B500004E04FF4987134A003F081F8012C25D0F3
:101B6000022C23D0042C21D0082C1FD0102C1DD0E7
:101B7000202C1BD0402C19D0802C17D0B4F5807F9E
:101B800014D0B4F5007F11D0B4F5806F0ED0B4F549
:101B9000006F0BD0B4F5805F08D0B4F5005F05D0BE
:101BA000B4F5804F02D0B4F5004F00D104E040F20C
:101BB00031111DA003F053F82869204008B1012617
:101BC00000E00026304670BD10B504460D48844242
:101BD00017D00D48844214D00C48844211D00C48D0
:101BE00084420ED00B4884420BD00B48844208D06C
:101BF0000A48844205D00A48844202D009488442F7
:101C000030D135E0000002400004024000080240EC
:101C1000000C024000100240001402400018024074
:101C2000001C0240002002404C69627261726965CA
:101C3000735C53544D3332463478785F5374645038
:101C400065726970685F4472697665725C7372630D
:101C50005C73746D3332663478785F6770696F2EA9
:101C6000630000004FF4A371AFF2440002F0F7FFED
:101C7000206980B210BD70B505460C460026FE48AE
:101C8000854217D0FD48854214D0FD48854211D0C9
:101C9000FC4885420ED0FC4885420BD0FB4885426B
:101CA00008D0FB48854205D0FA48854202D0FA4860
:101CB000854200D105E040F25711AFF2940002F0E6
:101CC000CEFF012C25D0022C23D0042C21D0082CAF
:101CD0001FD0102C1DD0202C1BD0402C19D0802CB4
:101CE00017D0B4F5807F14D0B4F5007F11D0B4F5CF
:101CF000806F0ED0B4F5006F0BD0B4F5805F08D0C4
:101D0000B4F5005F05D0B4F5804F02D0B4F5004FB4
:101D100000D105E04FF4AC71AFF2F40002F09FFF88
:101D20006869204008B1012600E00026304670BDF9
:101D300010B50446D048844217D0D048844214D00D
:101D4000CF48844211D0CF4884420ED0CE4884423E
:101D50000BD0CE48844208D0CD48844205D0CD482F
:101D6000844202D0CC48844200D105E040F26D119B
:101D7000AFF24C1002F073FF606980B210BD70B515
:101D800004460D46BC48844217D0BC48844214D057
:101D9000BB48844211D0BB4884420ED0BA4884422A
:101DA0000BD0BA48844208D0B948844205D0B9481B
:101DB000844202D0B848844200D105E040F27F114D
:101DC000AFF29C1002F04BFF002008B905B105E00E
:101DD0004FF4C071AFF2B01002F041FF258370BD27
:101DE00070B504460D46A448844217D0A3488442E7
:101DF00014D0A348844211D0A24884420ED0A248F5
:101E000084420BD0A148844208D0A148844205D026
:101E1000A048844202D0A048844200D105E04FF49B
:101E2000C971AFF2FC1002F01AFF002008B905B129
:101E300005E040F29311AFF2102002F010FF65832D
:101E400070BD70B505460C4616468B48854217D0C6
:101E50008A48854214D08A48854211D089488542F3
:101E60000ED0894885420BD08848854208D08848E2
:101E7000854205D08748854202D08748854200D1F7
:101E800005E04FF4D371AFF2602002F0E8FE012CC0
:101E900025D0022C23D0042C21D0082C1FD0102CAC
:101EA0001DD0202C1BD0402C19D0802C17D0B4F57D
:101EB000807F14D0B4F5007F11D0B4F5806F0ED0C0
:101EC000B4F5006F0BD0B4F5805F08D0B4F5005FB7
:101ED00005D0B4F5804F02D0B4F5004F00D105E035
:101EE00040F2A711AFF2C02002F0B9FE0EB1012EF0
:101EF00000D105E04FF4D471AFF2D42002F0AFFE70
:101F00000EB12C8300E06C8370BD70B504460D46A5
:101F10005948844217D05948844214D058488442C2
:101F200011D0584884420ED0574884420BD05748AD
:101F3000844208D05648844205D05648844202D094
:101F40005548844200D105E040F2BD11AFF228307F
:101F500002F085FE656170BD70B504460D464648C9
:101F6000844217D04548844214D04548844211D059
:101F7000444884420ED0444884420BD043488442B3
:101F800008D04348844205D04248844202D04248A7
:101F9000844200D105E040F2CB11AFF2743002F080
:101FA0005EFE60696840606170BD2DE9F0410646E3
:101FB0000D4614460027B8462F48864217D02F48B2
:101FC000864214D02E48864211D02E4886420ED02A
:101FD0002D4886420BD02D48864208D02C48864298
:101FE00005D02C48864202D02B48864200D105E01D
:101FF00040F21721AFF2D03002F031FEEDB1012DE9
:102000001BD0022D19D0032D17D0042D15D0052D6E
:1020100013D0062D11D0072D0FD0082D0DD0092D6E
:102020000BD00A2D09D00B2D07D00C2D05D00D2D6E
:1020300003D00E2D01D00F2D00D105E04FF4067115
:10204000AFF21C4002F00BFE44B3092C45D02CB378
:1020500024B31CB314B3012C3FD03ED0022C3CD08F
:102060003BD03AD0032C38D0042C36D035D034D0E5
:10207000052C32D031D012E00000024000040240B2
:1020800000080240000C0240001002400014024010
:1020900000180240001C0240002002401DE0092CF4
:1020A0001BD0062C19D0092C17D0072C15D014D012
:1020B00013D0082C11D010D00FD0092C0DD00CD07B
:1020C0000A2C0AD009D00B2C07D00C2C05D004D038
:1020D00003D00D2C01D00F2C00D105E040F21921C6
:1020E000AFF2BC4002F0BBFD6807C00E04FA00F777
:1020F000E91006F1200050F821006907CA0E0F21EF
:1021000091408843EA1006F1200141F82200E910CD
:1021100006F1200050F8210040EA0708E91006F116
:10212000200040F82180BDE8F0810000F9480068F7
:1021300040F00100F74908600020F64908310860C6
:10214000F4480068F4490840F2490860F348091D62
:102150000860081F006820F48020091F0860002024
:10216000EC490C310860704710B504461CB1012CD5
:1021700001D0052C00D103E0F021E9A002F06FFDB1
:102180000020E449891C08700846047010BD2DE940
:10219000F0410446002500260027212C17D0312CC1
:1021A00015D0392C13D0412C11D0612C0FD0792CA3
:1021B0000DD07A2C0BD07B2C09D07C2C07D07D2C19
:1021C00005D07E2C03D07F2C01D03B2C00D104E025
:1021D00040F29C61D2A002F042FD6511012D02D1B6
:1021E000CC48066808E0022D03D1CA487030066862
:1021F00002E0C8487430066804F01F050120A840BA
:10220000304008B1012700E000273846BDE8F081E2
:1022100038B5002000900024002500BF3120FFF7D2
:10222000B6FF05460098401C00900098B0F5A06FDE
:1022300001D0002DF2D03120FFF7A9FF08B1012411
:1022400000E00024204638BD70B5044600251F2C50
:1022500000DC04E04FF49471B1A002F000FDAD4841
:10226000056825F0F80545EAC405056070BD10B5A0
:1022700004460CB1012C00D104E040F24B11A8A09F
:1022800002F0EDFCB548046010BD10B504461CB169
:10229000012C01D0042C00D104E04FF4B271A0A0B5
:1022A00002F0DDFC00209B49703108700870012CA1
:1022B00002D0042C0AD104E0012096497031087044
:1022C00005E0052093497031087000E000BF00BFB1
:1022D00010BD10B504460CB1012C00D104E04FF440
:1022E000C6718FA002F0BBFC9D48046010BD2DE9B3
:1022F000F04105460F4616461C46DDF8188015B11C
:10230000B5F5800F00D104E040F2B71184A002F0CF
:10231000A6FC3F2F00D804E04FF4DC7180A002F04F
:102320009EFCC02E03D3B6F5D87F00D804E040F25F
:10233000B9117BA002F093FC022C05D0042C03D031
:10234000062C01D0082C00D104E04FF4DD7174A0FC
:1023500002F085FCB8F1040F03D3B8F10F0F00D8D9
:1023600004E040F2BB116EA002F079FC47EA86104F
:102370000121C1EB540140EA0140284340EA0860D2
:102380006449091D0860BDE8F08110B504460CB130
:10239000012C00D104E04FF4E77161A002F05FFC72
:1023A0006E48046610BD70B505460C46C02D03D3BB
:1023B000B5F5D87F00D804E04FF4F47158A002F0CE
:1023C0004EFC022C02D3072C00D804E040F2E911A5
:1023D00053A002F044FCA80140EA04704D49843146
:1023E000086070BD10B504460CB1012C00D104E0AA
:1023F00040F2F7114AA002F032FC5848846610BD42
:1024000010B504460CB1012C00D104E040F20921C2
:1024100043A002F024FC5148C46410BD70B50546C9
:102420000C46002645B1B5F5001F05D0B5F5800F67
:1024300002D0B5F5C00F00D104E04FF4097138A007
:1024400002F00DFC5CB1B4F1806F08D0B4F1A06F64
:1024500005D0B4F1C06F02D0B4F1E06F00D104E058
:1024600040F225212EA002F0FAFB2A480830066827
:1024700026F0EC6645EA040006432648083006606C
:1024800070BD70B505460C46002645B1B5F1804FCC
:1024900005D0B5F1004F02D0B5F1404F00D104E0B6
:1024A00040F24A211EA002F0DAFB5CB1B4F1005FF9
:1024B00008D0B4F1205F05D0B4F1405F02D0B4F190
:1024C000605F00D104E040F24B2115A002F0C7FB91
:1024D00010480830066826F0784645EA04000643AE
:1024E0000C480830066070BD70B5044600251CB16C
:1024F000012C01D0022C00D104E04FF42D7108A072
:1025000002F0ADFB03480830056825F003052543BC
:10251000056070BD00380240FFFFF6FE1030002459
:102520004C69627261726965735C53544D33324613
:102530003478785F5374645065726970685F447270
:10254000697665725C7372635C73746D3332663482
:1025500078785F7263632E630000000000004742DA
:10256000800E4742F948006800F00C00704770B5D3
:10257000044600257CB1802C0DD0902C0BD0A02CD3
:1025800009D0B02C07D0C02C05D0D02C03D0E02C23
:1025900001D0F02C00D105E040F2E921AFF280003B
:1025A00002F05DFBE948056825F0F005254305606C
:1025B00070BD70B5044600255CB1B4F5805F08D0ED
:1025C000B4F5A05F05D0B4F5C05F02D0B4F5E05F0C
:1025D00000D105E040F20931AFF2BC0002F03FFB50
:1025E000DA48056825F4E0552543056070BD70B5EF
:1025F000044600255CB1B4F5805F08D0B4F5A05F57
:1026000005D0B4F5C05F02D0B4F5E05F00D105E0BD
:102610004FF44A71AFF2F80002F021FBCB48056895
:1026200025F4604545EAC405056070BDF0B500219C
:1026300000220024022500260223C44F3F6807F031
:102640000C0121B1042905D0082937D105E0C04F7C
:10265000076036E0BF4F076033E0BC4F3F1F3F6865
:10266000C7F38056B94F3F1F3F6807F03F036EB175
:10267000B84FB7FBF3F7DFF8D4C2ACF1040CDCF8C9
:1026800000C0CCF3881C07FB0CF40CE0B04FB7FB88
:10269000F3F7DFF8B8C2ACF1040CDCF800C0CCF3FF
:1026A000881C07FB0CF4A94F3F1F3F68C7F3014785
:1026B0007F1C7D00B4FBF5F7076002E0A44F0760C4
:1026C00000BF00BFA14F3F6807F0F0010909A24F0A
:1026D0007A5C0768D74047609C4F3F6807F4E05139
:1026E000890A9D4F7A5C4768D7408760974F3F685B
:1026F00007F46041490B984F7A5C4768D740C76040
:10270000F0BD70B504460025B4F5807F5CD0B4F50B
:10271000007F59D09148844256D09148844253D08A
:102720009048844250D0904884424DD08F48844293
:102730004AD08F48844247D08E48844244D08E4845
:10274000844241D08D4884423ED08D4884423BD063
:102750008C48844238D08C48844235D08B4884429F
:1027600032D08B4884422FD08A4884422CD08A4869
:10277000844229D08948844226D08948844223D083
:102780008848844220D0884884421DD087488442AB
:102790001AD08748844217D08648844214D086488D
:1027A000844211D0854884420ED0854884420BD0A3
:1027B0008448844208D08448844205D083488442B7
:1027C00002D08348844200D105E040F2D931AFF213
:1027D000B02002F044FA04F44070B0F5407F09D113
:1027E0005A48056825F4F8157A4904EA01000543BA
:1027F00056480560554868300068C4F30B0108432B
:1028000052496831086070BD10B504460CB1012C06
:1028100000D105E040F2F731AFF2FC2002F01FFAE0
:102820006D48046010BD10B504460CB1012C00D1F8
:1028300005E04FF48161AFF2183002F010FA6648FB
:10284000001D046010BD10B504460CB1012C00D170
:1028500005E040F21941AFF2383002F000FA5F486B
:10286000046010BD70B504460D465D48204008B9AF
:1028700004B105E04FF48861AFF25C3002F0EFF98B
:102880000DB1012D00D105E040F24241AFF27030B0
:1028900002F0E5F93DB12D482830006820432B496E
:1028A0002831086006E0294828300068A0432749FD
:1028B0002831086070BD70B504460D4624F0F10063
:1028C00008B904B105E04FF48C61AFF2AC3002F00E
:1028D000C6F90DB1012D00D105E040F26141AFF222
:1028E000C03002F0BCF93DB118482C3000682043DC
:1028F00016492C31086006E014482C300068A043CB
:1029000012492C31086070BD70B504460D4624F0A4
:10291000010008B904B105E040F27B41AFF200408C
:1029200002F09DF90DB1012D00D105E040F27C418E
:10293000AFF2144002F093F93DB104483030006822
:10294000204302493031086051E04BE00838024032
:102950000024F40000127A000000002000030200AE
:102960000003030000030400000305000003060049
:1029700000030700000308000003090000030A0029
:1029800000030B0000030C0000030D0000030E0009
:1029900000030F00000310000003110000031200E9
:1029A00000031300000314000003150000031600C9
:1029B00000031700000318000003190000031A00A9
:1029C00000031B0000031C0000031D0000031E0089
:1029D00000031F00FFFCFF0F3C0E47425C01474213
:1029E00000EE8B81F8480068A043F749086070BD8D
:1029F00070B504460D46F548204008B904B105E01D
:102A000040F2AD41AFF2E84002F029F90DB1012DDD
:102A100000D105E040F2AE41AFF2FC4002F01FF9F8
:102A20003DB1E948083000682043E74908310860B3
:102A300006E0E54808300068A043E3490831086033
:102A400070BD70B504460D46E148204008B904B198
:102A500005E040F2D541AFF2385002F000F90DB177
:102A6000012D00D105E040F2D641AFF24C5002F00A
:102A7000F6F83DB1D4480C3000682043D2490C31FF
:102A8000086006E0D0480C300068A043CE490C3105
:102A9000086070BD70B504460D46CE48204008B9A8
:102AA00004B105E040F2FC41AFF28C5002F0D7F8DF
:102AB0000DB1012D00D105E040F2FD41AFF2A05073
:102AC00002F0CDF83DB1C048283800682043BE4927
:102AD0002839086006E0BC4828380068A043BA4995
:102AE0002839086070BD70B504460D4624F0F10029
:102AF00008B904B105E040F21951AFF2DC5002F020
:102B0000AEF80DB1012D00D105E040F21A51AFF23F
:102B1000F05002F0A4F83DB1AB48243800682043DF
:102B2000A9492439086006E0A74824380068A04372
:102B3000A5492439086070BD70B504460D4624F0DF
:102B4000010008B904B105E040F23151AFF2306044
:102B500002F085F80DB1012D00D105E040F23251AF
:102B6000AFF2446002F07BF83DB19748203800682E
:102B7000204395492039086006E0934820380068D2
:102B8000A04391492039086070BD70B504460D46D8
:102B90008E48204008B904B105E04FF4AC61AFF2B3
:102BA000806002F05CF80DB1012D00D105E040F22B
:102BB0006151AFF2946002F052F83DB1824818388A
:102BC0000068204380491839086006E07E481838BC
:102BD0000068A0437C491839086070BD70B5044690
:102BE0000D467D48204008B904B105E040F284510B
:102BF000AFF2D46002F033F80DB1012D00D105E041
:102C000040F28551AFF2E86002F029F83DB16E481C
:102C10001438006820436C491439086006E06A489B
:102C200014380068A04368491439086070BD70B555
:102C300004460D466948204008B904B105E040F259
:102C4000B251AFF2247002F00AF80DB1012D00D19B
:102C500005E040F2B351AFF2387002F000F83DB138
:102C6000594818300068204357491831086006E079
:102C7000554818300068A04353491831086070BDAA
:102C800070B504460D4624F0F10008B904B105E022
:102C900040F2D251AFF2787001F0E1FF0DB1012D99
:102CA00000D105E040F2D351AFF28C7001F0D7FFB4
:102CB0003DB145481C300068204343491C31086041
:102CC00006E041481C300068A0433F491C310860C1
:102CD00070BD70B504460D4624F0010008B904B17A
:102CE00005E040F2ED51AFF2C87001F0B8FF0DB150
:102CF000012D00D105E040F2EE51AFF2DC7001F0A1
:102D0000AEFF3DB130482030006820432E492031CD
:102D1000086006E02C4820300068A0432A49203192
:102D2000086070BD70B504460D462848204008B9BB
:102D300004B105E040F21F61AFF61C0001F08FFF07
:102D40000DB1012D00D105E04FF4C461AFF63000A4
:102D500001F085FF3DB11C482830006820431A4926
:102D60002831086006E0184828300068A04316495A
:102D70002831086070BD70B504460D4614482040E7
:102D800008B904B105E040F24761AFF66C0001F00C
:102D900066FF0DB1012D00D105E04FF4C961AFF61A
:102DA000800001F05CFF3DB107482C3000682043F3
:102DB00005492C31086006E003482C300068A04328
:102DC00001492C31086070BD38380240003601C915
:102DD000CCA0F8FF00EE9FDDCCA6F8FF006E988136
:102DE00070B504460D4604F0C00008B904B105E012
:102DF00040F27461AFF6D80001F031FF0DB1012D42
:102E000000D105E040F27561AFF6EC0001F027FF5C
:102E10002DB12448007820432249087004E021485D
:102E20000078A0431F49087070BD1E4867300068D5
:102E300040F080701B4967310860704770B50446E8
:102E40000025012C0BD0022C09D0042C07D0082C13
:102E500005D0102C03D0802C01D0202C00D105E00F
:102E600040F2DA61AFF6481001F0F9FE0D48401E5D
:102E70000068204008B1012500E00025284670BD0B
:102E800010B5044604F0400008B904B105E040F272
:102E9000F961AFF6741001F0E2FE0248401C0470C4
:102EA00010BD00000D38024010B50446F9488442B8
:102EB00005D0F948844202D0F848844200D103E0AA
:102EC000DD21F7A001F0CBFEF248844208D10121B8
:102ED0008014FFF783FE0021A014FFF77FFE16E0A9
:102EE000ED48844208D101210014FFF74EFE002175
:102EF0002014FFF74AFE0AE0E848844207D1012186
:102F0000C013FFF742FE0021E013FFF73EFE10BDA5
:102F100070B505460C460026DE48854205D0DE48E1
:102F2000854202D0DD48854200D104E04FF4837130
:102F3000DBA001F094FE208858B12088B0F5806FA6
:102F400007D02088B0F5004F03D02088B0F5404F5F
:102F500000D104E040F20911D1A001F080FE6088A8
:102F6000B0F5827F01D0608800B904E04FF485712C
:102F7000CBA001F074FEA088B0F5006F01D0A0884E
:102F800000B904E040F20B11C5A001F068FEE08832
:102F900010B1E088022800D104E04FF48671C0A08F
:102FA00001F05DFE208910B12089012800D104E0E4
:102FB00040F20D11BAA001F052FE6089B0F5007F19
:102FC00001D0608900B904E04FF48771B4A001F02A
:102FD00046FEA089A0B1A089082811D0A089102898
:102FE0000ED0A08918280BD0A089202808D0A0894D
:102FF000282805D0A089302802D0A089382800D1FF
:1030000004E040F20F11A6A001F029FEE08910B102
:10301000E089802800D104E04FF48871A0A001F07D
:103020001EFE208A012800DB04E040F211119CA062
:1030300001F015FE2E8806F4415620886188084369
:10304000A1880843E188084321890843618908432E
:10305000A1890843E189084306432E80A88B4FF2DB
:10306000FF710840A883208A288270BD2DE9FE4F99
:1030700005460C464FF0000902274FF000084FF0BC
:10308000010B0026B2460020029001900090824879
:10309000854202D08148854200D104E04FF4A571F9
:1030A0007FA001F0DCFD208858B12088B0F5807F3A
:1030B00007D02088B0F5007F03D02088B0F5407F8E
:1030C00000D104E040F24B1175A001F0C8FD60880A
:1030D00058B16088102808D06088202805D0608802
:1030E000302802D06088B02800D104E04FF4A671E7
:1030F0006BA001F0B4FDA08840B1A088012805D0E4
:10310000A088032802D0A088052800D104E040F25E
:103110004D1163A001F0A3FDE088B0F5007F01D060
:10312000E08800B904E04FF4A7715DA001F097FDBD
:10313000A068B0F5FA5F03D36849A068884202D955
:10314000A068022800D104E040F24F1154A001F021
:1031500086FDA08910B1A089082800D104E04FF4B1
:10316000A8714FA001F07BFDA88B4FF240010840F1
:10317000A88302202884B5F81C90A068022803D1F7
:103180004FF00008022754E0A08810B94FF0010B5F
:1031900001E04FF0020B5248006800F4000028B133
:1031A0004F48006820F400004D4908604C487C30CE
:1031B0000068C0F38810019049487C300068C0F373
:1031C000027000904648001F006800F03F00029027
:1031D00044490298B1FBF0F0019948430099B0FBD3
:1031E000F1FAE088B0F5007F0AD14FEA1A2000EB2F
:1031F00080004000A168B0FBF1F0401D86B20BE0FA
:103200004FEA4B10BAFBF0F000EB80004000A168E1
:10321000B0FBF1F0401D86B20A20B6FBF0F606F0D6
:103220000108A6EB0800C0F34F074FF6FF7000EA55
:103230000828022F01DBFF2F02DD02274FF00008D4
:10324000E08840EA080038432884A088A189084320
:10325000618808432188084340F4006040EA090976
:10326000A5F81C90BDE8FE8F00210180418081807F
:10327000C180018141818181C18107210182704723
:103280000021018041808180C18002218160002174
:10329000818170470030014000380040003C004010
:1032A0004C69627261726965735C53544D33324686
:1032B0003478785F5374645065726970685F4472E3
:1032C000697665725C7372635C73746D33326634F5
:1032D00078785F7370692E630000000000EE0200D2
:1032E0000838024000127A0070B504460D46FB48CB
:1032F000844205D0FA48844202D0FA48844200D180
:1033000005E040F20121AFF2680001F0A8FC0DB128
:10331000012D00D105E040F20221AFF27C0001F066
:103320009EFC25B1208840F04000208004E02088E9
:103330004FF6BF710840208070BD70B504460D4641
:10334000E748844208D0E748844205D0E6488442F2
:1033500002D0B4F1402F00D105E040F21A21AFF2C3
:10336000C00001F07CFC0DB1012D00D105E040F260
:103370001B21AFF2D40001F072FC25B1A08B40F408
:103380008060A08304E0A08B4FF6FF310840A0834B
:1033900070BD70B504460D46D048844205D0D04873
:1033A000844202D0CF48844200D105E040F235216A
:1033B000AFF2141001F053FCB5F5006F00D005B961
:1033C00005E040F23621AFF2281001F048FC2088D9
:1033D0004FF2FF710840208020882843208070BD74
:1033E00070B504460D46BD48844205D0BC488442B1
:1033F00002D0BC48844200D105E040F24921AFF23E
:10340000601001F02CFC4BF6FF70854202D0B5F540
:10341000804F00D105E040F24A21AFF27C1001F06C
:103420001EFCB5F5804F04D1208840F480402080F8
:1034300004E020884BF6FF710840208070BD70B515
:1034400004460D46A548844205D0A548844202D0D2
:10345000A448844200D105E040F26321AFF2C010DD
:1034600001F0FDFBB5F5807F03D04FF6FF6085428C
:1034700000D105E04FF41971AFF2DC1001F0EFFB61
:103480004FF6FF60854204D0208840F48070208091
:1034900004E020884FF6FF610840208070BD70B5C1
:1034A00004460D468D48844205D08D48844202D0A2
:1034B0008C48844200D105E040F27B21AFF220200D
:1034C00001F0CDFB0DB1012D00D105E04FF41F71CE
:1034D000AFF2342001F0C3FB25B1A08840F0040016
:1034E000A08004E0A0884FF6FB710840A08070BD6A
:1034F00070B504460D467948844205D07848844228
:1035000002D07848844200D105E040F29A21AFF21F
:10351000702001F0A4FB0DB1012D00D105E040F2B7
:103520009B21AFF2842001F09AFB25B1A08840F0E6
:103530001000A08004E0A0884FF6EF710840A08042
:1035400070BD2DE9F04105460C460026002766486F
:10355000854202D0B5F1402F00D105E040F2C121F3
:10356000AFF2C42001F07BFB208858B12088B0F571
:10357000807F07D02088B0F5007F03D02088B0F589
:10358000407F00D105E040F2C221AFF2EC2001F013
:1035900066FB608858B16088102808D060882028B1
:1035A00005D06088302802D06088B02800D105E0BE
:1035B00040F2C321AFF2183001F051FBA08840B1B6
:1035C000A088012805D0A088032802D0A08805285B
:1035D00000D105E04FF43171AFF23C3001F03FFB18
:1035E000A08910B1A089082800D105E040F2C521CA
:1035F000AFF2543001F033FBA88B4FF2400108408A
:10360000A88302202884AE8B2088B0F5007F01D0EB
:10361000208810B94FF4807708E02088B0F5407F0B
:1036200003D02088B0F5807F00D10027A088A18931
:10363000084361880843384340F400600643AE8382
:10364000BDE8F08110B50446244884420BD02448DC
:10365000844208D02348844205D02348844202D0C3
:10366000B4F1402F00D105E040F20A31AFF2D03082
:1036700001F0F5FAA08910BD70B504460D46174853
:1036800084420BD01648844208D01648844205D0A4
:103690001548844202D0B4F1402F00D105E040F239
:1036A0001A31AFF2044001F0DAFAA58170BD70B5AD
:1036B00004460D460948844205D00948844202D098
:1036C0000848844200D105E040F27331AFF2304047
:1036D00001F0C5FA0DB1012D08D10DE00030014017
:1036E00000380040003C0040003400404FF45D7161
:1036F000AFF2544001F0B3FA25B1208840F40050F5
:10370000208004E020884DF6FF710840208070BDC5
:1037100010B50446D248844205D0D248844202D033
:10372000D148844200D105E040F28931AFF29040A7
:1037300001F095FA208840F48050208010BD70B5CB
:1037400004460D460026C648844205D0C54884423A
:1037500002D0C548844200D105E04FF46771AFF252
:10376000C04001F07CFA0DB1012D00D105E040F21E
:103770009D31AFF2D44001F072FA012D01D0268BB9
:1037800000E0A68A304670BD10B50446B4488442B5
:1037900005D0B448844202D0B348844200D105E049
:1037A0004FF46D71AFF2085001F059FA208A10BD44
:1037B00070B504460D461646A94884420BD0A94868
:1037C000844208D0A848844205D0A848844202D048
:1037D000B4F1402F00D105E040F2D931AFF24050B2
:1037E00001F03DFA0EB1012E00D105E040F2DA31D0
:1037F000AFF2545001F033FA4FF6FC70284008B98C
:1038000005B105E040F2DB31AFF26C5001F027FA70
:103810001EB1A0882843A08002E0A088A843A08011
:1038200070BD2DE9F04104460D4616464FF00008E4
:1038300000278B4884420BD08A48844208D08A48AB
:10384000844205D08948844202D0B4F1402F00D18F
:1038500005E04FF48961AFF2B85001F000FA0EB103
:10386000012E00D105E040F24941AFF2CC5001F009
:10387000F6F9712D03D0602D01D0502D00D105E057
:1038800040F24A41AFF2E85001F0E9F94FEA251859
:10389000012000FA08F087B21EB1A0883843A0804A
:1038A00002E0A088B843A080BDE8F08170B505466D
:1038B0000C4600266A4885420BD06A48854208D0EB
:1038C0006948854205D06948854202D0B5F1402F4C
:1038D00000D105E040F27341AFF23C6001F0BFF966
:1038E000802C10D0402C0ED0202C0CD0102C0AD0C4
:1038F000082C08D0042C06D0022C04D0012C02D0B5
:10390000B4F5807F00D105E040F27441AFF2706001
:1039100001F0A5F92889204008B1012600E0002621
:10392000304670BD70B504460D464D4884420BD0FC
:103930004C48844208D04C48844205D04B488442CD
:1039400002D0B4F1402F00D105E040F29B41AFF22C
:10395000B06001F084F9102D00D105E040F29C41E7
:10396000AFF2C46001F07BF9E843208170BD2DE91E
:10397000F04705460C460027B8460026B1463848B1
:1039800085420BD03748854208D03748854205D05C
:103990003648854202D0B5F1402F00D105E040F213
:1039A000B741AFF2047001F05AF9602C0BD0712CC2
:1039B00009D0542C07D0552C05D0562C03D0532CAD
:1039C00001D0582C00D105E04FF49761AFF2307070
:1039D00001F045F904F00F01012088401FFA80F83A
:1039E00026110120B04086B2A88800EA060928897D
:1039F00000EA080020B1B9F1000F01D0012700E072
:103A000000273846BDE8F08770B504460D4600260D
:103A1000134884420BD01348844208D01248844291
:103A200005D01248844202D0B4F1402F00D105E005
:103A300040F2EC41AFF2987001F011F9542D00D131
:103A400005E040F2ED41AFF2A87001F008F905F091
:103A50000F010120884086B2F043208170BD000034
:103A60000030014000380040003C0040003400407D
:103A700010B50446F84884420ED0F84884420BD072
:103A8000F748844208D0F748844205D0F64884427B
:103A900002D0F648844200D103E0B521F4A001F041
:103AA000DEF8ED48844208D101211020FFF796F896
:103AB00000211020FFF792F83EE0E848844209D147
:103AC00001214804FFF761F800214FF40030FFF7AF
:103AD0005CF831E0E248844209D101218804FFF713
:103AE00054F800214FF48020FFF74FF824E0DD4820
:103AF000844209D10121C804FFF747F800214FF49F
:103B00000020FFF742F817E0D748844209D101218D
:103B10000805FFF73AF800214FF48010FFF735F859
:103B20000AE0D248844207D101212020FFF756F84D
:103B300000212020FFF752F810BD2DE9FF47054670
:103B40000C460026B14600BFB046C34885420ED0A1
:103B5000C24885420BD0C248854208D0C148854240
:103B600005D0C148854202D0C048854200D103E05B
:103B7000EB21BFA001F073F8206820B1CB49206889
:103B8000884200D203E0EC21B9A001F068F8A088D7
:103B900018B1A088B0F5805F00D103E0ED21B4A09A
:103BA00001F05DF8E08858B1E088B0F5805F07D09B
:103BB000E088B0F5005F03D0E088B0F5405F00D149
:103BC00003E0EE21AAA001F04AF8208938B120894B
:103BD000B0F5806F03D02089B0F5C06F00D103E04D
:103BE000EF21A3A001F03BF860894FF6F371084084
:103BF00010B9608900B103E0F0219DA001F02FF819
:103C0000A08958B1A089B0F5807F07D0A089B0F510
:103C1000007F03D0A089B0F5407F00D103E0F121FF
:103C200093A001F01CF8A08980B18B48854208D090
:103C30008A48854205D08A48854202D08B48854211
:103C400000D103E0F6218AA001F009F82E8A26F4BB
:103C50004056E08806432E82AE8941F20C608643CE
:103C6000A08821890843618908430643AE81AE8A52
:103C700026F44076A0890643AE826846FEF7D6FC5D
:103C80007548854202D07948854202D1DDF80C9012
:103C900001E0DDF80890A88900F4004040B109EB8C
:103CA000C90000EB091021684900B0FBF1F707E0FB
:103CB00009EBC90000EB091021688900B0FBF1F79E
:103CC0006420B7FBF0F006013009642101FB107895
:103CD000A88900F4004040B1322000EBC800B0FBDE
:103CE000F1F000F00700064308E0322000EB081076
:103CF0006421B0FBF1F000F00F0006432E81BDE817
:103D0000FF874FF41651016000218180C18001813D
:103D10000C21418100218181704770B505460C4618
:103D200000264D48854208D04C48854205D04C4875
:103D3000854202D04D48854200D104E04FF4B6716F
:103D40004BA000F08CFF208818B12088B0F5006FE0
:103D500000D104E040F26D1145A000F080FF6088C2
:103D600018B16088B0F5806F00D104E04FF4B771EE
:103D70003FA000F074FFA08818B1A088B0F5007FC4
:103D800000D104E040F26F1139A000F068FFE08834
:103D900018B1E088B0F5807F00D104E04FF4B8712D
:103DA00033A000F05CFF2E8A26F4706620886188BC
:103DB0000843A1880843E188084306432E8270BD6A
:103DC0000021018041808180C180704770B5044628
:103DD0000D46214884420ED0204884420BD0204812
:103DE000844208D01F48844205D01F48844202D034
:103DF0001E48844200D104E040F29B111CA000F058
:103E00002EFF0DB1012D00D104E04FF4CE7118A0AA
:103E100000F025FF25B1A08940F40050A08104E006
:103E2000A0894DF6FF710840A08170BD70B50446B1
:103E30000D46094884420ED0084884420BD00848F9
:103E4000844208D00748844205D00748844202D003
:103E5000064884422CD131E000100140004400406B
:103E600000480040004C0040005000400014014059
:103E70004C69627261726965735C53544D333246AA
:103E80003478785F5374645065726970685F447207
:103E9000697665725C7372635C73746D3332663419
:103EA00078785F75736172742E630000E170720040
:103EB00040F2B511AFF2480000F0D1FE208B00F4C3
:103EC0007F402083208B2843208370BD70B504463B
:103ED0000D46FE4884420ED0FD4884420BD0FD487A
:103EE000844208D0FC48844205D0FC48844202D079
:103EF000FB48844200D105E04FF4E571AFF2900039
:103F000000F0ADFE0DB1012D00D105E040F2CB1166
:103F1000AFF2A40000F0A3FE25B1A08940F4004058
:103F2000A08103E0A089C0F30E00A08170BD70B530
:103F300004460D46E54884420ED0E54884420BD045
:103F4000E448844208D0E448844205D0E3488442EF
:103F500002D0E348844200D105E04FF4F271AFF2A1
:103F6000F00000F07CFE0DB1012D00D105E040F223
:103F7000E511AFF2041000F072FE25B1A08A40F402
:103F80000060A08204E0A08A4FF2FF710840A08286
:103F900070BD70B504460D46CC4884420ED0CC4866
:103FA00084420BD0CB48844208D0CB48844205D011
:103FB000CA48844202D0CA48844200D105E040F297
:103FC0001D21AFF2541000F04AFEB5F5007F00DA73
:103FD00005E040F21E21AFF2681000F040FEC5F38C
:103FE0000800A08070BD10B50446B84884420ED0C9
:103FF000B74884420BD0B748844208D0B6488442C0
:1040000005D0B648844202D0B548844200D105E0CC
:1040100040F22D21AFF2A81000F021FEA088C0F3DD
:10402000080010BD70B504460D46A84884420ED065
:10403000A74884420BD0A748844208D0A6488442AF
:1040400005D0A648844202D0A548844200D105E0AC
:104050004FF41871AFF2E81000F001FE0F2D00DCF4
:1040600005E040F26121AFF2F81000F0F8FD208A7F
:104070004FF6F07108402082208A2843208270BDCC
:1040800070B504460D46914884420ED09048844253
:104090000BD09048844208D08F48844205D08F4886
:1040A000844202D08E48844200D105E04FF41D7155
:1040B000AFF2442000F0D3FD0DB1012D00D105E099
:1040C00040F27521AFF2582000F0C9FD25B1A0895A
:1040D00040F00200A08104E0A0894FF6FD71084085
:1040E000A08170BD70B504460D46784884420ED05C
:1040F000774884420BD07748844208D0764884427F
:1041000005D07648844202D07548844200D105E04B
:1041100040F28F21AFF2A82000F0A1FD15B1B5F556
:10412000006F00D105E04FF42471AFF2BC2000F025
:1041300096FDA0894FF2FF710840A081A089284315
:10414000A08170BD70B504460D46604884420ED013
:104150005F4884420BD05F48844208D05E48844266
:1041600005D05E48844202D05D48844200D105E01B
:104170004FF43571AFF2083000F071FD0DB1202D14
:1041800000D105E040F2D521AFF21C3000F067FD10
:10419000208A4FF6DF7108402082208A284320823F
:1041A00070BD70B504460D46484884420ED048485C
:1041B00084420BD04748844208D04748844205D007
:1041C0004648844202D04648844200D105E040F28D
:1041D000E621AFF2643000F042FD0DB1012D00D1B7
:1041E00005E040F2E721AFF2783000F038FD25B16C
:1041F000208A40F48040208204E0208A4BF6FF7140
:104200000840208270BD10B50446304884420ED06C
:104210002F4884420BD02F48844208D02E48844235
:1042200005D02E48844202D02D48844200D105E0BA
:1042300040F2FE21AFF2C83000F011FDA08940F03D
:104240000100A08110BD70B504460D461F48844290
:104250000ED01F4884420BD01E48844208D01E480E
:10426000844205D01D48844202D01D48844200D1BA
:1042700005E040F23331AFF2084000F0F0FC0DB140
:10428000012D00D105E04FF44D71AFF21C4000F05C
:10429000E6FC25B1A08A40F00800A08204E0A08AD4
:1042A0004FF6F7710840A08270BD70B504460D4608
:1042B0000648844208D00648844205D00548844216
:1042C00002D0074884420DD112E0000000100140E6
:1042D0000044004000480040004C004000500040B6
:1042E000001401404FF46271AFF27C4000F0B7FC63
:1042F000208BC0B22083208B40EA0520208370BD34
:1043000070B504460D46F948844208D0F848844206
:1043100005D0F848844202D0F748844200D105E035
:1043200040F29B31AFF2B84000F099FC0DB1012D85
:1043300000D105E04FF46771AFF2CC4000F08FFC84
:1043400025B1A08A40F02000A08204E0A08A4FF6A8
:10435000DF710840A08270BD70B504460D46E34889
:10436000844208D0E248844205D0E248844202D028
:10437000E148844200D105E04FF46D71AFF2105076
:1043800000F06DFC0DB1012D00D105E040F2B5311A
:10439000AFF2245000F063FC25B1A08A40F0100079
:1043A000A08204E0A08A4FF6EF710840A08270BDA1
:1043B00070B504460D46CD4884420ED0CC488442A8
:1043C0000BD0CC48844208D0CC48844205D0CC489D
:1043D000844202D0C848844200D105E040F2FB315B
:1043E000AFF2745000F03BFC042D00D005B905E09D
:1043F0004FF47F71AFF2885000F031FCA08A4FF685
:10440000FB710840A082A08A2843A08270BD70B5CD
:1044100004460D46B54884420ED0B54884420BD0C0
:10442000B448844208D0B548844205D0B448844298
:1044300002D0B148844200D105E040F20D41AFF214
:10444000D05000F00CFC0DB1012D00D105E040F280
:104450000E41AFF2E45000F002FC25B1A08A40F01A
:104460000200A08204E0A08A4FF6FD710840A082FD
:1044700070BD70B504460D4616469C4884420ED069
:104480009B4884420BD09B48844208D09B4884427E
:1044900005D09B48844202D09748844200D105E071
:1044A00040F23B41AFF2386000F0D9FB4FF63F706D
:1044B000284008B905B105E040F23C41AFF2506038
:1044C00000F0CDFB0EB1012E00D105E040F23D41E0
:1044D000AFF2646000F0C3FB1EB1A08A2843A08243
:1044E00002E0A08AA843A08270BD2DE9F0470446EF
:1044F0000D4617464FF00008C246C14600267B48CD
:1045000084420ED07A4884420BD07A48844208D044
:104510007A48844205D07A48844202D07648844260
:1045200000D105E040F2BD41AFF2BC6000F097FB66
:10453000282D19D040F22770854215D040F2266010
:10454000854211D040F2255085420DD040F22440E2
:10455000854209D040F64600854205D040F66A10F3
:10456000854201D0602D00D105E040F2BE41AFF29E
:10457000007000F074FB0FB1012F00D105E040F294
:10458000BF41AFF2147000F06AFB40F66A1085423A
:1045900012D15648844208D05548844205D0554827
:1045A000844202D05448844200D105E040F2C44124
:1045B000AFF2447000F053FB2646C5F3421805F0F5
:1045C0001F0A012000FA0AF9B8F1010F01D10C36D7
:1045D00005E0B8F1020F01D1103600E0143627B122
:1045E000306840EA0900306003E0306820EA0900E2
:1045F0003060BDE8F08770B505460C4600263B48A4
:1046000085420ED03A4885420BD03A48854208D0C0
:104610003A48854205D03A48854202D0364885421C
:1046200000D105E040F2FC41AFF2BC7000F017FB96
:10463000012C13D0802C11D0402C0FD0202C0DD069
:10464000102C0BD0B4F5807F08D0B4F5007F05D0D6
:10465000082C03D0042C01D0022C00D105E040F23C
:10466000FD41AFF2F47000F0FAFAB4F5007F12D118
:104670001E48854208D01E48854205D01D48854207
:1046800002D01D48854200D105E040F20251AFF64C
:10469000200000F0E4FA2888204008B1012600E05C
:1046A0000026304670BD70B504460D460F48844262
:1046B0000ED00F4884420BD00E48844208D00F48D9
:1046C000844205D00E48844202D00B48844200D177
:1046D00005E040F22C51AFF6680000F0C0FA4FF64A
:1046E0009F40284070B96DB112E0000000100140F9
:1046F000004400400048004000140140004C0040CD
:104700000050004040F22D51AFF69C0000F0A7FA97
:1047100005F40070B0F5007F12D17C48844208D0C7
:104720007B48844205D07B48844202D07A48844248
:1047300000D105E040F23251AFF6CC0000F08FFA24
:10474000E843208070BD2DE9F04705460C46002760
:104750000026B046B1466D4885420ED06C48854271
:104760000BD06C48854208D06C48854205D06C4817
:10477000854202D06848854200D105E04FF4AA6125
:10478000AFF6141000F06BFA282C27D040F22770F7
:10479000844223D040F2266084421FD040F225504C
:1047A00084421BD040F22440844217D040F6460099
:1047B000844213D040F66A1084420FD0B4F5587F7B
:1047C0000CD040F22530844208D0B4F5587F05D093
:1047D000B4F5187F02D0B4F5B07F00D105E040F207
:1047E0005151AFF6741000F03AFA40F66A10844264
:1047F00012D14648854208D04548854205D04548F3
:10480000854202D04448854200D105E040F256512D
:10481000AFF6A41000F023FAC4F3421804F01F0608
:10482000012000FA06F6B8F1010F02D1A88906406E
:1048300007E0B8F1020F02D1288A064001E0A88AF9
:1048400006402712012000FA07F7288807401EB10A
:1048500017B14FF0010901E04FF000094846BDE8EB
:10486000F0872DE9F04104460D4600260027274831
:1048700084420ED0264884420BD02648844208D079
:104880002648844205D02648844202D022488442E9
:1048900000D105E040F29951AFF62C2000F0DFF98D
:1048A00040F2266085420BD040F22550854207D069
:1048B00040F64600854203D040F66A10854200D19A
:1048C00005E040F29A51AFF6582000F0C8F940F6E2
:1048D0006A10854212D10D48844208D00C488442A7
:1048E00005D00C48844202D00B48844200D105E038
:1048F00040F29F51AFF6882000F0B1F92E1201204E
:10490000B04087B2F8432080BDE8F081001001403C
:10491000004400400048004000140140004C0040AA
:10492000005000400CB500200190009076480068CF
:1049300040F480307449086000BF7348006800F498
:10494000003000900198401C0190009818B901981F
:10495000B0F5A06FF1D16C48006800F4003010B1E0
:104960000120009001E0002000900098012846D12D
:1049700065484030006840F080506349403108602D
:104980006248006840F48040604908605E48083032
:1049900000685D49083108600846006840F400403E
:1049A00008600846006840F4A05008605848091F95
:1049B0000860081F006840F08070091F086000BF91
:1049C0005148006800F000700028F9D040F20560FE
:1049D000504908604C480830006820F003004A49FC
:1049E000083108600846006840F00200086000BF17
:1049F00045480830006800F00C000828F8D10CBDCC
:104A000010B54548006840F47000434908603E48CE
:104A1000006840F001003C49086000203A49083134
:104A20000860394800683D490840374908603C48FB
:104A3000091D0860081F006820F48020091F086015
:104A4000002031490C310860FFF76CFF4FF0006027
:104A500031498039086010BD70B500200022022362
:104A600000240221284D08352D6805F00C0020B1E6
:104A7000042806D0082834D107E02A4D2A4E356094
:104A800033E02A4D284E35602FE01F4D2D1D2D6837
:104A9000C5F380541C4D2D1D2D6805F03F0154B108
:104AA000224DB5FBF1F5184E361D3668C6F3881653
:104AB00005FB06F209E01B4DB5FBF1F5124E361D64
:104AC0003668C6F3881605FB06F20F4D2D1D2D68BE
:104AD000C5F301456D1C6B00B2FBF3F5124E35605A
:104AE00003E0104D104E356000BF00BF064D083585
:104AF0002D68C5F303150E4E705D0B4D2D68C54036
:104B0000094E356070BD0000003802400070004062
:104B100008544007003C024088ED00E0FFFFF6FE2D
:104B2000103000240024F4001000002000127A004D
:104B3000140000200648804706480047FEE7FEE7CD
:104B4000FEE7FEE7FEE7FEE7FEE7FEE7FEE7FEE73D
:104B5000014A00088901000800F065F800BFFEE77F
:104B60001CB50020012103464A02CDE900103CA1FA
:104B70003C4801F01CFA0020082103468A01CDE9D7
:104B8000001039A1394801F012FA0020062103462D
:104B90004FF48062CDE9001035A1374801F007FAE3
:104BA0003648062100234FF48062CDE9001034A17D
:104BB000354801F0FCF91CBD10B500221821012078
:104BC00000F03CF93149086000220C21012000F07E
:104BD00035F92F49086000224821012000F02EF904
:104BE0002C49086000224FF49471012000F026F94E
:104BF0002949086010BD10B503220021012000F0F2
:104C00001DF92649086010BD2548006840F08070F5
:104C1000234908600020234948600846006840F0A6
:104C200001000860704710B54FF44070FBF716FBA9
:104C300005F0BCF906F0F6FE07F096FA04F09AF9D2
:104C400004F004FA04F0BAFAFFF7D5FFFFF7B4FF57
:104C5000FFF786FFFFF7D8FF02F08FF810BD70470F
:104C60004C454400618F00084849440029B90008B8
:104C70004D617654780000002F9D00083800002018
:104C80004D61765278000000D39C0008240000207B
:104C9000280000202C0000203000002034000020DC
:104CA000FCED00E000F000E000F1080141604FF091
:104CB000FF31816000F10801C160016100210160E4
:104CC000704700210161704742684A6093688B60B9
:104CD000936859609160086103685B1C03607047CA
:104CE00010B502460B685C1C0CB9106907E002F1B4
:104CF000080000E04068446824689C42FAD944688F
:104D00004C604C68A160886041600A611468641C52
:104D1000146010BD01460A69D1E901309860D1E9FB
:104D2000010358605068884201D1886850600020B3
:104D300008611068401E1060106870472DE9F0414E
:104D400005460E4601272C4654B900BF502080F37B
:104D50001188BFF34F8FBFF36F8F00BF00BFFEE717
:104D6000002C42D0E06B00283FD04FF0FF31E06BC9
:104D7000B1FBF0F0216C884237D303F018FED4E980
:104D80000F12206801FB0200A0600020A0632068D1
:104D90006060E06B401E226C216800FB0211E16044
:104DA000FF2084F8440084F845009EB9206908B9C2
:104DB000012000E00020A8B904F1100002F007FA79
:104DC00080B14FF08050F6490860BFF34F8FBFF3BA
:104DD0006F8F07E004F11000FFF766FF04F1240075
:104DE000FFF762FF03F00AFE00E000270FB1012089
:104DF00000E0002050B900BF502080F31188BFF3BD
:104E00004F8FBFF36F8F00BF00BFFEE73846BDE88E
:104E1000F0812DE9F04106460D4617469846069C5E
:104E20000DB9246000E02760E66325640121204677
:104E3000FFF784FF84F84C80BDE8F0812DE9F8434A
:104E400005460E4617460024E5B1601EB0FBF5F09E
:104E5000B04217D305FB06F010F1510F12D805FB35
:104E600006F808F1500003F071FE0446B4B1A14603
:104E700009F150093B464A46314628460094FFF75F
:104E8000C8FF0BE054B900BF502080F31188BFF376
:104E90004F8FBFF36F8F00BF00BFFEE72046BDE816
:104EA000F88370B5044603F082FD94F9455010E094
:104EB000606A08B9012000E0002038B904F124003C
:104EC00002F085F918B102F010FB00E003E0681E63
:104ED00045B2002DECDC00BFFF2084F8450003F054
:104EE0008DFD03F064FD94F9445010E0206908B989
:104EF000012000E0002048B904F1100002F067F939
:104F000008B102F0F2FA681E45B200E001E0002D9F
:104F1000ECDC00BFFF2084F8440003F06FFD70BD9F
:104F200070B5054603F043FDA86BE96B884201D1DB
:104F3000012400E0002403F061FD204670BD2DE94E
:104F4000F04104460F4615464FF00008A66B206C52
:104F500048B9206800282CD1A06802F064FB804684
:104F60000020A06025E07DB93946226C606807F01A
:104F700038FE216C606808446060D4E90101884211
:104F800017D32068606014E03946226CE06807F0AF
:104F900028FE216CE068411AE1602168E0688842DF
:104FA00003D2216CA068411AE160022D01D106B143
:104FB000761E701CA0634046BDE8F0812DE9FF43DA
:104FC00083B0064688461D464FF00009344654B962
:104FD00000BF502080F31188BFF34F8FBFF36F8F56
:104FE00000BF00BFFEE7B8F1000F01D1206C08B987
:104FF000012000E0002050B900BF502080F311884C
:10500000BFF34F8FBFF36F8F00BF00BFFEE7022DCE
:1050100002D1E06B012801D1012000E0002050B94D
:1050200000BF502080F31188BFF34F8FBFF36F8F05
:1050300000BF00BFFEE702F077FA08B9059808B98B
:10504000012000E0002050B900BF502080F31188FB
:10505000BFF34F8FBFF36F8F00BF00BFFEE700BFEE
:1050600003F0A5FCA06BE16B884201D3022D28D18F
:105070002A4641462046FFF762FF0746606A08B9A4
:10508000012000E0002068B904F1240002F09FF83C
:1050900088B14FF0805042490860BFF34F8FBFF393
:1050A0006F8F08E03FB14FF080503D490860BFF37B
:1050B0004F8FBFF36F8F03F0A1FC012007B0BDE855
:1050C000F083059818B903F099FC0020F6E7B9F1D0
:1050D000000F04D101A802F0BDF94FF0010903F05F
:1050E0008DFC01F01EFA03F062FC94F94400401CB0
:1050F00010B9002084F8440094F94500401C10B910
:10510000002084F8450003F079FC05A901A802F00D
:10511000A8F9F0B92046FFF703FFA0B104F1100091
:10512000059901F0C4FF2046FFF7BBFE01F0E3F84C
:10513000002895D14FF0805019490860BFF34F8F78
:10514000BFF36F8F8CE72046FFF7ABFE01F0D3F87B
:1051500086E72046FFF7A5FE01F0CDF80020ADE779
:1051600010B5044654B10020A06020600021E16029
:1051700000231A4619462046FFF720FF10BD2DE9EF
:10518000F041044601260027224600210120FFF7B6
:1051900055FE05462846FFF7E3FF2846BDE8F081A7
:1051A00004ED00E070B505462C4654B900BF502010
:1051B00080F31188BFF34F8FBFF36F8F00BF00BF25
:1051C000FEE702F0A1F9A16888420CD1E068401E18
:1051D000E060E06828B900231A4619462046FFF728
:1051E000EDFE012600E00026304670BD01464A6A09
:1051F00022B10A6B1268C2F1100000E00020704773
:1052000070B5054603F0D3FBA86B08B9012400E094
:10521000002403F0F3FB204670BD2DE9F34182B07A
:10522000054600272C46B84654B900BF502080F3ED
:105230001188BFF34F8FBFF36F8F00BF00BFFEE732
:10524000206C08B9012000E0002050B900BF5020B8
:1052500080F31188BFF34F8FBFF36F8F00BF00BF84
:10526000FEE702F061F908B9039808B9012000E0EF
:10527000002050B900BF502080F31188BFF34F8F3A
:10528000BFF36F8F00BF00BFFEE700BF03F08FFBCF
:10529000A66BFEB1701EA063206810B902F0E0FAA0
:1052A000A060206908B9012000E0002060B904F185
:1052B000100001F08CFF38B14FF08050F6490860C3
:1052C000BFF34F8FBFF36F8F03F098FB012004B043
:1052D000BDE8F081039818B903F090FB0020F6E7D1
:1052E0001FB9684602F0B6F8012703F087FB01F00A
:1052F00018F903F05CFB94F94400401C10B900203D
:1053000084F8440094F94500401C10B9002084F84A
:10531000450003F073FB03A9684602F0A2F840BB06
:105320002046FFF76DFFF0B1206838B903F03FFB6E
:10533000A06802F005F9804603F060FB04F1240048
:10534000039901F0B4FE2046FFF7ABFD00F0D3FF58
:1053500000289BD14FF08050CF490860BFF34F8F9A
:10536000BFF36F8F92E72046FFF79BFD00F0C3FF6E
:105370008CE72046FFF795FD00F0BDFF2046FFF7C4
:105380003FFF002882D0B8F1000F0BD003F00FFBD5
:105390002046FFF72BFF06463146A06802F0B8F919
:1053A00003F02CFB002092E72DE9F04106460F4662
:1053B000344654B900BF502080F31188BFF34F8F9B
:1053C000BFF36F8F00BF00BFFEE702F09DF8A1683A
:1053D000884204D1E068401CE060012508E03946BD
:1053E0002046FFF71AFF054615B1E068401CE06053
:1053F0002846BDE8F08170B505460E46002455B13B
:10540000AE4208D8022200212846FFF717FD0446C5
:105410006CB1A6630BE054B900BF502080F3118833
:10542000BFF34F8FBFF36F8F00BF00BFFEE7204673
:1054300070BD2DE9FC5F80468B4691461E46444672
:1054400054B900BF502080F31188BFF34F8FBFF3D2
:105450006F8F00BF00BFFEE7BBF1000F01D1206CD2
:1054600008B9012000E0002050B900BF502080F3AF
:105470001188BFF34F8FBFF36F8F00BF00BFFEE7F0
:10548000022E02D1E06B012801D1012000E00020B2
:1054900050B900BF502080F31188BFF34F8FBFF386
:1054A0006F8F00BF00BFFEE703F0DCFA00BF5021A2
:1054B000EFF3118081F31188BFF34F8FBFF36F8F2C
:1054C00000BF0546A06BE16B884201D3022E3CD1A0
:1054D00094F94570A06B0190324659462046FFF77B
:1054E0002EFD781C88B9606A08B9012000E0002010
:1054F00050B904F1240001F06AFE28B1B9F1000F9F
:1055000002D00120C9F800001CE000BF01F096FCA9
:1055100000900098874214D27F2F01D0012000E034
:10552000002050B900BF502080F31188BFF34F8F87
:10553000BFF36F8F00BF00BFFEE7781C40B284F856
:10554000450000BF4FF0010A01E04FF0000A00BF24
:1055500085F3118800BF5046BDE8FC9F2DE9F05F40
:10556000074688463C4654B900BF502080F3118856
:10557000BFF34F8FBFF36F8F00BF00BFFEE7206CFC
:1055800008B9012000E0002050B900BF502080F38E
:105590001188BFF34F8FBFF36F8F00BF00BFFEE7CF
:1055A000206808B9A06808B9012000E0002050B9BF
:1055B00000BF502080F31188BFF34F8FBFF36F8F70
:1055C00000BF00BFFEE703F04DFA00BF5021EFF32C
:1055D000118081F31188BFF34F8FBFF36F8F00BF2E
:1055E0000546D4F838A0E06B504537D994F94560AA
:1055F0000AF10100A063701C88B9606A08B9012033
:1056000000E0002038BB04F1240001F0E0FD10B3FD
:10561000B8F1000F1FD00120C8F800001BE000BF48
:1056200001F00CFC83465E4514D27F2E01D0012090
:1056300000E0002050B900BF502080F31188BFF374
:105640004F8FBFF36F8F00BF00BFFEE7701C40B2EB
:1056500084F8450000BF4FF0010901E04FF0000958
:1056600000BF85F3118800BF4846BDE8F09F70B5C4
:1056700004460D46206C70B1216CE0680144E16085
:10568000D4E90210884201D32168E1602846226CE7
:10569000E16807F0A6FA70BD04ED00E02DE9F741DE
:1056A00083B005460E464FF000082C4654B900BFA3
:1056B000502080F31188BFF34F8FBFF36F8F00BF6F
:1056C00000BFFEE70EB9206C08B9012000E0002001
:1056D00050B900BF502080F31188BFF34F8FBFF344
:1056E0006F8F00BF00BFFEE701F01EFF08B90598ED
:1056F00008B9012000E0002050B900BF502080F31D
:105700001188BFF34F8FBFF36F8F00BF00BFFEE75D
:1057100000BF03F04CF9A76BF7B131462046FFF705
:10572000A6FF781EA063206908B9012000E00020D0
:1057300060B904F1100001F04AFD38B14FF080501B
:10574000FC490860BFF34F8FBFF36F8F03F056F92A
:10575000012006B0BDE8F081059818B903F04EF9B4
:105760000020F6E7B8F1000F04D101A801F072FEA5
:105770004FF0010803F042F900F0D3FE03F017F9EF
:1057800094F94400401C10B9002084F8440094F9B6
:105790004500401C10B9002084F8450003F02EF9A4
:1057A00005A901A801F05DFEF0B92046FFF728FD2C
:1057B000A0B104F12400059901F079FC2046FFF71F
:1057C00070FB00F098FD0028A3D14FF08050D9491C
:1057D0000860BFF34F8FBFF36F8F9AE72046FFF744
:1057E00060FB00F088FD94E72046FFF75AFB00F0CD
:1057F00082FD2046FFF704FD00288AD00020A8E79C
:105800002DE9F74382B005460E464FF000082C46BE
:1058100054B900BF502080F31188BFF34F8FBFF3FE
:105820006F8F00BF00BFFEE70EB9206C08B90120E2
:1058300000E0002050B900BF502080F31188BFF372
:105840004F8FBFF36F8F00BF00BFFEE701F06CFE0C
:1058500008B9049808B9012000E0002050B900BF41
:10586000502080F31188BFF34F8FBFF36F8F00BFBD
:1058700000BFFEE700BF03F09AF8D4F83890B9F102
:10588000000F1ED0E76831462046FFF7F0FEE760C4
:10589000606A08B9012000E0002060B904F124002A
:1058A00001F095FC38B14FF08050A2490860BFF379
:1058B0004F8FBFF36F8F03F0A1F8012005B0BDE853
:1058C000F083049818B903F099F80020F6E7B8F1CE
:1058D000000F04D1684601F0BDFD4FF0010803F050
:1058E0008DF800F01EFE03F062F894F94400401CAD
:1058F00010B9002084F8440094F94500401C10B908
:10590000002084F8450003F079F804A9684601F006
:10591000A8FDF0B92046FFF773FCA0B104F1240004
:10592000049901F0C4FB2046FFF7BBFA00F0E3FC4A
:105930000028A0D14FF080507E490860BFF34F8F00
:10594000BFF36F8F97E72046FFF7ABFA00F0D3FC69
:1059500091E72046FFF7A5FA00F0CDFC2046FFF7BF
:105960004FFC002887D00020A8E72DE9F84F074614
:105970008A4690463C4654B900BF502080F31188B7
:10598000BFF34F8FBFF36F8F00BF00BFFEE7BAF1C9
:10599000000F01D1206C08B9012000E0002050B9AF
:1059A00000BF502080F31188BFF34F8FBFF36F8F7C
:1059B00000BF00BFFEE703F055F800BF5021EFF332
:1059C000118081F31188BFF34F8FBFF36F8F00BF3A
:1059D0000546D4F838B0BBF1000F3CD094F94460D0
:1059E00051462046FFF743FEABF10100A063701C57
:1059F00088B9206908B9012000E0002040BB04F10B
:105A0000100001F0E4FB18B3B8F1000F20D0012022
:105A1000C8F800001CE000BF01F010FA00900098E8
:105A2000864214D27F2E01D0012000E0002050B920
:105A300000BF502080F31188BFF34F8FBFF36F8FEB
:105A400000BF00BFFEE7701C40B284F8440000BFF6
:105A50004FF0010901E04FF0000900BF85F3118804
:105A600000BF4846BDE8F88F2DE9F0470646884656
:105A7000344654B900BF502080F31188BFF34F8FD4
:105A8000BFF36F8F00BF00BFFEE7B8F1000F01D179
:105A9000206C08B9012000E0002050B900BF502060
:105AA00080F31188BFF34F8FBFF36F8F00BF00BF2C
:105AB000FEE7206C08B1012000E0002050B900BFD3
:105AC000502080F31188BFF34F8FBFF36F8F00BF5B
:105AD00000BFFEE702F0C6FF00BF5021EFF31180C8
