:020000040800F2
:1000000038400120C9260008D1260008D326000860
:10001000D5260008D7260008D926000800000000D1
:100020000000000000000000000000009D0100082A
:10003000DD26000800000000F9010008A5650008A1
:10004000E3260008E3260008E3260008E32600086C
:10005000E3260008E3260008E3260008E32600085C
:10006000E3260008E3260008E3260008E32600084C
:10007000E3260008E3260008E3260008E32600083C
:10008000E3260008E3260008E3260008E32600082C
:10009000E3260008E3260008E3260008E32600081C
:1000A000E3260008E3260008E3260008E32600080C
:1000B000E3260008E3260008E3260008E3260008FC
:1000C000E3260008E3260008E3260008E3260008EC
:1000D000E3260008E3260008E3260008E3260008DC
:1000E000E3260008E3260008E3260008E3260008CC
:1000F000E3260008E3260008E3260008E3260008BC
:10010000E3260008E3260008E3260008E3260008AB
:10011000E3260008E3260008E3260008E32600089B
:10012000E3260008E3260008E3260008E32600088B
:10013000E3260008E3260008E3260008E32600087B
:10014000E3260008E3260008E3260008FD880008EF
:10015000E3260008E3260008E3260008E32600085B
:10016000E3260008E3260008E3260008E32600084B
:10017000E3260008E3260008E3260008E32600083B
:10018000E3260008E3260008DFF80CD00CF03AFC68
:1001900000480047ED260008384001202C4B196824
:1001A0000868B0E8F04F80F30988BFF36F8F4FF015
:1001B000000080F3118870470000000008480068C4
:1001C000006880F308884FF0000080F3148862B65E
:1001D00061B6BFF34F8FBFF36F8F00DF00BF00BF6B
:1001E00008ED00E0DFF80C00016841F470010160E7
:1001F000704700BF88ED00E0EFF30980BFF36F8F19
:10020000134B1A681EF0100F08BF20ED108A20E96A
:10021000F04F106009B44FF0500080F31188BFF325
:100220004F8FBFF36F8F04F037F94FF0000080F36A
:10023000118809BC19680868B0E8F04F1EF0100F6B
:1002400008BFB0EC108A80F30988BFF36F8F704746
:1002500030000020EFF305807047000010B5044621
:10026000FA48844217D0FA48844214D0F9488442AC
:1002700011D0F94884420ED0F84884420BD0F84897
:10028000844208D0F748844205D0F748844202D01F
:10029000F648844200D103E07B21F5A002F095FAF4
:1002A000EA48844208D10121084601F017F90021EB
:1002B000012001F013F95EE0E548844208D10121F4
:1002C000022001F00BF90021022001F007F952E0B1
:1002D000E048844208D10121042001F0FFF8002108
:1002E000042001F0FBF846E0DB48844208D10121FC
:1002F000082001F0F3F80021082001F0EFF83AE0BF
:10030000D648844208D10121102001F0E7F80021ED
:10031000102001F0E3F82EE0D148844208D10121F9
:10032000202001F0DBF80021202001F0D7F822E0A6
:10033000CC48844208D10121402001F0CFF80021AF
:10034000402001F0CBF816E0C748844208D10121D3
:10035000802001F0C3F80021802001F0BFF80AE0FE
:10036000C248844207D10121801501F0B7F800216D
:10037000A01501F0B3F810BD2DE9F04104460D467B
:1003800000260027B046B148844217D0B0488442C6
:1003900014D0B048844211D0AF4884420ED0AF4848
:1003A00084420BD0AE48844208D0AE48844205D087
:1003B000AD48844202D0AD48844200D103E0BB2165
:1003C000ABA002F002FA002010B9286800B103E0E7
:1003D000BC21A7A002F0F9F9287940B128790128B9
:1003E00005D02879022802D02879032800D103E01B
:1003F000BD219FA002F0E9F9E87928B1E879012848
:1004000002D0E879022800D103E0BE2198A002F0D2
:10041000DCF9002657E0012000FA06F7286800EA18
:100420000708B8454ED120687200032191408843E7
:10043000206028797100884021680843206028796D
:10044000012802D02879022830D1687940B1687932
:10045000012805D06879022802D06879032800D1E4
:1004600003E0D02182A002F0B0F9A068720003215D
:1004700091408843A060687971008840A168084372
:10048000A060A87910B1A879012800D103E0D72194
:1004900077A002F09AF961680120B0408143616061
:1004A0006068A979B14089B208436060E068720071
:1004B000032191408843E060E87971008840E16859
:1004C0000843E060761C102EA5D3BDE8F0814FF6FE
:1004D000FF7101600021017141718171C17170472B
:1004E00038B504460D464FF480300090574884429A
:1004F00017D05748844214D05648844211D05648E9
:1005000084420ED0554884420BD05548844208D0CE
:100510005448844205D05448844202D0534884420F
:1005200000D104E04FF4827151A002F04EF9002096
:1005300008B905B104E040F205114DA002F045F9FB
:100540000098284300900098E061E5610098E06120
:10055000E0690090E069009038BD70B505460C4632
:1005600000263A48854217D03948854214D0394888
:10057000854211D0384885420ED0384885420BD08C
:100580003748854208D03748854205D036488542ED
:1005900002D03648854200D104E04FF4987134A06F
:1005A00002F013F9012C25D0022C23D0042C21D0E9
:1005B000082C1FD0102C1DD0202C1BD0402C19D063
:1005C000802C17D0B4F5807F14D0B4F5007F11D003
:1005D000B4F5806F0ED0B4F5006F0BD0B4F5805F2A
:1005E00008D0B4F5005F05D0B4F5804F02D0B4F563
:1005F000004F00D104E040F231111DA002F0E5F8F7
:100600002869204008B1012600E00026304670BD70
:1006100010B504460D48844217D00D48844214D0CA
:100620000C48844211D00C4884420ED00B488442BE
:100630000BD00B48844208D00A48844205D00A48AF
:10064000844202D00948844230D135E000000240A3
:100650000004024000080240000C0240001002406A
:100660000014024000180240001C0240002002401A
:100670004C69627261726965735C53544D333246E2
:100680003478785F5374645065726970685F44723F
:10069000697665725C7372635C73746D3332663451
:1006A00078785F6770696F2E630000004FF4A37164
:1006B000AFF2440002F089F8206980B210BD70B535
:1006C00005460C460026FE48854217D0FD48854267
:1006D00014D0FD48854211D0FC4885420ED0FC481C
:1006E00085420BD0FB48854208D0FB48854205D0A7
:1006F000FA48854202D0FA48854200D105E040F22E
:100700005711AFF2940002F060F8012C25D0022CB2
:1007100023D0042C21D0082C1FD0102C1DD0202C2D
:100720001BD0402C19D0802C17D0B4F5807F14D06A
:10073000B4F5007F11D0B4F5806F0ED0B4F5006F22
:100740000BD0B4F5805F08D0B4F5005F05D0B4F5E8
:10075000804F02D0B4F5004F00D105E04FF4AC71EA
:10076000AFF2F40002F031F86869204008B10126C8
:1007700000E00026304670BD10B50446D0488442E3
:1007800017D0D048844214D0CF48844211D0CF48EB
:1007900084420ED0CE4884420BD0CE48844208D04A
:1007A000CD48844205D0CD48844202D0CC48844212
:1007B00000D105E040F26D11AFF24C1002F005F8E7
:1007C000606980B210BD70B504460D46BC488442D5
:1007D00017D0BC48844214D0BB48844211D0BB48D7
:1007E00084420ED0BA4884420BD0BA48844208D022
:1007F000B948844205D0B948844202D0B8488442FE
:1008000000D105E040F27F11AFF29C1001F0DDFF56
:10081000002008B905B105E04FF4C071AFF2B01087
:1008200001F0D3FF258370BD70B504460D46A44882
:10083000844217D0A348844214D0A348844211D0E4
:10084000A24884420ED0A24884420BD0A1488442E0
:1008500008D0A148844205D0A048844202D0A048D4
:10086000844200D105E04FF4C971AFF2FC1001F0F1
:10087000ACFF002008B905B105E040F29311AFF2DA
:10088000102001F0A2FF658370BD70B505460C46CF
:1008900016468B48854217D08A48854214D08A482C
:1008A000854211D0894885420ED0894885420BD0B7
:1008B0008848854208D08848854205D087488542C7
:1008C00002D08748854200D105E04FF4D371AFF2E2
:1008D000602001F07AFF012C25D0022C23D0042CBB
:1008E00021D0082C1FD0102C1DD0202C1BD0402C28
:1008F00019D0802C17D0B4F5807F14D0B4F5007FC8
:1009000011D0B4F5806F0ED0B4F5006F0BD0B4F5F4
:10091000805F08D0B4F5005F05D0B4F5804F02D0F9
:10092000B4F5004F00D105E040F2A711AFF2C020AE
:1009300001F04BFF0EB1012E00D105E04FF4D47150
:10094000AFF2D42001F041FF0EB12C8300E06C83A4
:1009500070BD70B504460D465948844217D05948B9
:10096000844214D05848844211D0584884420ED052
:10097000574884420BD05748844208D05648844296
:1009800005D05648844202D05548844200D105E043
:1009900040F2BD11AFF2283001F017FF656170BD64
:1009A00070B504460D464648844217D045488442F7
:1009B00014D04548844211D0444884420ED0444863
:1009C00084420BD04348844208D04348844205D037
:1009D0004248844202D04248844200D105E040F2BD
:1009E000CB11AFF2743001F0F0FE606968406061D5
:1009F00070BD2DE9F04106460D4614460027B84665
:100A00002F48864217D02F48864214D02E4886425F
:100A100011D02E4886420ED02D4886420BD02D484C
:100A2000864208D02C48864205D02C48864202D007
:100A30002B48864200D105E040F21721AFF2D030BA
:100A400001F0C3FEEDB1012D1BD0022D19D0032DF5
:100A500017D0042D15D0052D13D0062D11D0072D3C
:100A60000FD0082D0DD0092D0BD00A2D09D00B2D3C
:100A700007D00C2D05D00D2D03D00E2D01D00F2D3C
:100A800000D105E04FF40671AFF21C4001F09DFE6D
:100A900044B3092C45D02CB324B31CB314B3012C9C
:100AA0003FD03ED0022C3CD03BD03AD0032C38D0A3
:100AB000042C36D035D034D0052C32D031D012E0D1
:100AC000000002400004024000080240000C024006
:100AD000001002400014024000180240001C0240B6
:100AE000002002401DE0092C1BD0062C19D0092C37
:100AF00017D0072C15D014D013D0082C11D010D03B
:100B00000FD0092C0DD00CD00A2C0AD009D00B2CF8
:100B100007D00C2C05D004D003D00D2C01D00F2C05
:100B200000D105E040F21921AFF2BC4001F04DFECA
:100B30006807C00E04FA00F7E91006F1200050F82B
:100B400021006907CA0E0F2191408843EA1006F17F
:100B5000200141F82200E91006F1200050F82100A0
:100B600040EA0708E91006F1200040F82180BDE8BE
:100B7000F0810000F948006840F00100F749086082
:100B80000020F64908310860F4480068F44908403C
:100B9000F2490860F348091D0860081F006820F446
:100BA0008020091F08600020EC490C310860704764
:100BB00010B504461CB1012C01D0052C00D103E076
:100BC000F021E9A001F001FE0020E449891C087031
:100BD0000846047010BD2DE9F041044600250026AA
:100BE0000027212C17D0312C15D0392C13D0412CB3
:100BF00011D0612C0FD0792C0DD07A2C0BD07B2CFE
:100C000009D07C2C07D07D2C05D07E2C03D07F2CE6
:100C100001D03B2C00D104E040F29C61D2A001F055
:100C2000D4FD6511012D02D1CC48066808E0022DE3
:100C300003D1CA487030066802E0C84874300668BC
:100C400004F01F050120A840304008B1012700E052
:100C500000273846BDE8F08138B500200090002418
:100C6000002500BF3120FFF7B6FF05460098401C65
:100C700000900098B0F5A06F01D0002DF2D0312087
:100C8000FFF7A9FF08B1012400E00024204638BD89
:100C900070B5044600251F2C00DC04E04FF494716D
:100CA000B1A001F092FDAD48056825F0F80545EAD0
:100CB000C405056070BD10B504460CB1012C00D10F
:100CC00004E040F24B11A8A001F07FFDB54804609C
:100CD00010BD10B504461CB1012C01D0042C00D16C
:100CE00004E04FF4B271A0A001F06FFD00209B4919
:100CF000703108700870012C02D0042C0AD104E075
:100D0000012096497031087005E005209349703143
:100D1000087000E000BF00BF10BD10B504460CB164
:100D2000012C00D104E04FF4C6718FA001F04DFDFD
:100D30009D48046010BD2DE9F04105460F4616465A
:100D40001C46DDF8188015B1B5F5800F00D104E020
:100D500040F2B71184A001F038FD3F2F00D804E025
:100D60004FF4DC7180A001F030FDC02E03D3B6F546
:100D7000D87F00D804E040F2B9117BA001F025FD36
:100D8000022C05D0042C03D0062C01D0082C00D155
:100D900004E04FF4DD7174A001F017FDB8F1040F09
:100DA00003D3B8F10F0F00D804E040F2BB116EA0DE
:100DB00001F00BFD47EA86100121C1EB540140EA26
:100DC0000140284340EA08606449091D0860BDE805
:100DD000F08110B504460CB1012C00D104E04FF4B1
:100DE000E77161A001F0F1FC6E48046610BD70B5BA
:100DF00005460C46C02D03D3B5F5D87F00D804E0D6
:100E00004FF4F47158A001F0E0FC022C02D3072C3F
:100E100000D804E040F2E91153A001F0D6FCA8018B
:100E200040EA04704D498431086070BD10B5044635
:100E30000CB1012C00D104E040F2F7114AA001F0FE
:100E4000C4FC5848846610BD10B504460CB1012C92
:100E500000D104E040F2092143A001F0B6FC514862
:100E6000C46410BD70B505460C46002645B1B5F505
:100E7000001F05D0B5F5800F02D0B5F5C00F00D129
:100E800004E04FF4097138A001F09FFC5CB1B4F1AB
:100E9000806F08D0B4F1A06F05D0B4F1C06F02D05C
:100EA000B4F1E06F00D104E040F225212EA001F062
:100EB0008CFC2A480830066826F0EC6645EA0400F7
:100EC000064326480830066070BD70B505460C46DE
:100ED000002645B1B5F1804F05D0B5F1004F02D0E5
:100EE000B5F1404F00D104E040F24A211EA001F0CC
:100EF0006CFC5CB1B4F1005F08D0B4F1205F05D0A8
:100F0000B4F1405F02D0B4F1605F00D104E040F280
:100F10004B2115A001F059FC10480830066826F056
:100F2000784645EA040006430C480830066070BD68
:100F300070B5044600251CB1012C01D0022C00D153
:100F400004E04FF42D7108A001F03FFC0348083085
:100F5000056825F003052543056070BD0038024093
:100F6000FFFFF6FE103000244C6962726172696501
:100F7000735C53544D3332463478785F5374645005
:100F800065726970685F4472697665725C737263DA
:100F90005C73746D3332663478785F7263632E638A
:100FA0000000000000004742800E4742F9480068F8
:100FB00000F00C00704770B5044600257CB1802C11
:100FC0000DD0902C0BD0A02C09D0B02C07D0C02C69
:100FD00005D0D02C03D0E02C01D0F02C00D105E0BE
:100FE00040F2E921AFF2800001F0EFFBE94805682B
:100FF00025F0F0052543056070BD70B50446002559
:101000005CB1B4F5805F08D0B4F5A05F05D0B4F54D
:10101000C05F02D0B4F5E05F00D105E040F20931D5
:10102000AFF2BC0001F0D1FBDA48056825F4E055C9
:101030002543056070BD70B5044600255CB1B4F56C
:10104000805F08D0B4F5A05F05D0B4F5C05F02D0D2
:10105000B4F5E05F00D105E04FF44A71AFF2F8005B
:1010600001F0B3FBCB48056825F4604545EAC405AB
:10107000056070BDF0B50021002200240225002685
:101080000223C44F3F6807F00C0121B1042905D0A9
:10109000082937D105E0C04F076036E0BF4F076031
:1010A00033E0BC4F3F1F3F68C7F38056B94F3F1F27
:1010B0003F6807F03F036EB1B84FB7FBF3F7DFF8B7
:1010C000D4C2ACF1040CDCF800C0CCF3881C07FBE4
:1010D0000CF40CE0B04FB7FBF3F7DFF8B8C2ACF19B
:1010E000040CDCF800C0CCF3881C07FB0CF4A94FFF
:1010F0003F1F3F68C7F301477F1C7D00B4FBF5F736
:10110000076002E0A44F076000BF00BFA14F3F6827
:1011100007F0F0010909A24F7A5C0768D7404760E1
:101120009C4F3F6807F4E051890A9D4F7A5C4768FD
:10113000D7408760974F3F6807F46041490B984F4D
:101140007A5C4768D740C760F0BD70B5044600259B
:10115000B4F5807F5CD0B4F5007F59D091488442CB
:1011600056D09148844253D09048844250D0904801
:1011700084424DD08F4884424AD08F48844247D021
:101180008E48844244D08E48844241D08D48844267
:101190003ED08D4884423BD08C48844238D08C4825
:1011A000844235D08B48844232D08B4884422FD041
:1011B0008A4884422CD08A48844229D08948844273
:1011C00026D08948844223D08848844220D0884849
:1011D00084421DD0874884421AD08748844217D061
:1011E0008648844214D08648844211D0854884427F
:1011F0000ED0854884420BD08448844208D084486D
:10120000844205D08348844202D08348844200D17E
:1012100005E040F2D931AFF2B02001F0D6FA04F483
:101220004070B0F5407F09D15A48056825F4F8159B
:101230007A4904EA0100054356480560554868307C
:101240000068C4F30B01084352496831086070BD5F
:1012500010B504460CB1012C00D105E040F2F73185
:10126000AFF2FC2001F0B1FA6D48046010BD10B57A
:1012700004460CB1012C00D105E04FF48161AFF2BE
:10128000183001F0A2FA6648001D046010BD10B5C8
:1012900004460CB1012C00D105E040F21941AFF237
:1012A000383001F092FA5F48046010BD70B5044612
:1012B0000D465D48204008B904B105E04FF488614F
:1012C000AFF25C3001F081FA0DB1012D00D105E0E3
:1012D00040F24241AFF2703001F077FA3DB12D4853
:1012E0002830006820432B492831086006E029484F
:1012F00028300068A04327492831086070BD70B5C8
:1013000004460D4624F0F10008B904B105E04FF49D
:101310008C61AFF2AC3001F058FA0DB1012D00D163
:1013200005E040F26141AFF2C03001F04EFA3DB14C
:1013300018482C300068204316492C31086006E01C
:1013400014482C300068A04312492C31086070BD4D
:1013500070B504460D4624F0010008B904B105E05B
:1013600040F27B41AFF2004001F02FFA0DB1012DA8
:1013700000D105E040F27C41AFF2144001F025FAC3
:101380003DB10448303000682043024930310860E4
:1013900051E04BE0083802400024F40000127A00CB
:1013A000000000200003020000030300000304000B
:1013B0000003050000030600000307000003080007
:1013C0000003090000030A0000030B0000030C00E7
:1013D00000030D0000030E0000030F0000031000C7
:1013E00000031100000312000003130000031400A7
:1013F0000003150000031600000317000003180087
:101400000003190000031A0000031B0000031C0066
:1014100000031D0000031E0000031F00FFFCFF0F60
:101420003C0E47425C01474200EE8B81F848006861
:10143000A043F749086070BD70B504460D46F548F5
:10144000204008B904B105E040F2AD41AFF2E840F8
:1014500001F0BBF90DB1012D00D105E040F2AE4124
:10146000AFF2FC4001F0B1F93DB1E9480830006845
:101470002043E7490831086006E0E5480830006885
:10148000A043E3490831086070BD70B504460D46BD
:10149000E148204008B904B105E040F2D541AFF27F
:1014A000385001F092F90DB1012D00D105E040F264
:1014B000D641AFF24C5001F088F93DB1D4480C3020
:1014C00000682043D2490C31086006E0D0480C3057
:1014D0000068A043CE490C31086070BD70B5044669
:1014E0000D46CE48204008B904B105E040F2FC4169
:1014F000AFF28C5001F069F90DB1012D00D105E07A
:1015000040F2FD41AFF2A05001F05FF93DB1C0489B
:10151000283800682043BE492839086006E0BC48E6
:1015200028380068A043BA492839086070BD70B5F2
:1015300004460D4624F0F10008B904B105E040F27C
:101540001951AFF2DC5001F040F90DB1012D00D17D
:1015500005E040F21A51AFF2F05001F036F93DB11A
:10156000AB48243800682043A9492439086006E0C4
:10157000A74824380068A043A5492439086070BDF5
:1015800070B504460D4624F0010008B904B105E029
:1015900040F23151AFF2306001F017F90DB1012D79
:1015A00000D105E040F23251AFF2446001F00DF994
:1015B0003DB197482038006820439549203908609C
:1015C00006E0934820380068A0439149203908601C
:1015D00070BD70B504460D468E48204008B904B170
:1015E00005E04FF4AC61AFF2806001F0EEF80DB1B0
:1015F000012D00D105E040F26151AFF2946001F09D
:10160000E4F83DB182481838006820438049183911
:10161000086006E07E4818380068A0437C49183905
:10162000086070BD70B504460D467D48204008B97D
:1016300004B105E040F28451AFF2D46001F0C5F886
:101640000DB1012D00D105E040F28551AFF2E86007
:1016500001F0BBF83DB16E481438006820436C4976
:101660001439086006E06A4814380068A0436849E5
:101670001439086070BD70B504460D4669482040B5
:1016800008B904B105E040F2B251AFF2247001F0A4
:101690009CF80DB1012D00D105E040F2B351AFF23D
:1016A000387001F092F83DB1594818300068204375
:1016B00057491831086006E0554818300068A043C3
:1016C00053491831086070BD70B504460D4624F0CA
:1016D000F10008B904B105E040F2D251AFF27870E0
:1016E00001F073F80DB1012D00D105E040F2D351A6
:1016F000AFF28C7001F069F83DB145481C300068CC
:10170000204343491C31086006E041481C30006812
:10171000A0433F491C31086070BD70B504460D46BA
:1017200024F0010008B904B105E040F2ED51AFF238
:10173000C87001F04AF80DB1012D00D105E040F26A
:10174000EE51AFF2DC7001F040F83DB1304820308E
:10175000006820432E492031086006E02C482030E4
:101760000068A0432A492031086070BD70B5044666
:101770000D462848204008B904B105E040F21F6139
:10178000AFF61C0001F021F80DB1012D00D105E0EC
:101790004FF4C461AFF6300001F017F83DB11C48BA
:1017A0002830006820431A492831086006E01848AC
:1017B00028300068A04316492831086070BD70B514
:1017C00004460D461448204008B904B105E040F233
:1017D0004761AFF66C0000F0F8FF0DB1012D00D1AC
:1017E00005E04FF4C961AFF6800000F0EEFF3DB1B7
:1017F00007482C300068204305492C31086006E07A
:1018000003482C300068A04301492C31086070BDAA
:1018100038380240003601C9CCA0F8FF00EE9FDD49
:10182000CCA6F8FF006E988170B504460D4604F012
:10183000C00008B904B105E040F27461AFF6D80009
:1018400000F0C3FF0DB1012D00D105E040F275613C
:10185000AFF6EC0000F0B9FF2DB12448007820432A
:101860002249087004E021480078A0431F4908700D
:1018700070BD1E486730006840F080701B496731BA
:101880000860704770B504460025012C0BD0022C6F
:1018900009D0042C07D0082C05D0102C03D0802CA4
:1018A00001D0202C00D105E040F2DA61AFF64810FB
:1018B00000F08BFF0D48401E0068204008B1012554
:1018C00000E00025284670BD10B5044604F0400035
:1018D00008B904B105E040F2F961AFF6741000F008
:1018E00074FF0248401C047010BD00000D38024017
:1018F00010B50446F948844205D0F948844202D024
:10190000F848844200D103E0DD21F7A000F05DFF3C
:10191000F248844208D101218014FFF783FE0021A0
:10192000A014FFF77FFE16E0ED48844208D10121A4
:101930000014FFF74EFE00212014FFF74AFE0AE0D4
:10194000E848844207D10121C013FFF742FE00217D
:10195000E013FFF73EFE10BD70B505460C460026AD
:10196000DE48854205D0DE48854202D0DD4885420A
:1019700000D104E04FF48371DBA000F026FF208843
:1019800058B12088B0F5806F07D02088B0F5004F9F
:1019900003D02088B0F5404F00D104E040F2091197
:1019A000D1A000F012FF6088B0F5827F01D060887E
:1019B00000B904E04FF48571CBA000F006FFA088C9
:1019C000B0F5006F01D0A08800B904E040F20B111F
:1019D000C5A000F0FAFEE08810B1E088022800D12E
:1019E00004E04FF48671C0A000F0EFFE208910B132
:1019F0002089012800D104E040F20D11BAA000F0C6
:101A0000E4FE6089B0F5007F01D0608900B904E090
:101A10004FF48771B4A000F0D8FEA089A0B1A089CE
:101A2000082811D0A08910280ED0A08918280BD022
:101A3000A089202808D0A089282805D0A08930288E
:101A400002D0A089382800D104E040F20F11A6A0EE
:101A500000F0BBFEE08910B1E089802800D104E0ED
:101A60004FF48871A0A000F0B0FE208A012800DBAE
:101A700004E040F211119CA000F0A7FE2E8806F4AD
:101A80004156208861880843A1880843E1880843BB
:101A90002189084361890843A1890843E1890843F2
:101AA00006432E80A88B4FF2FF710840A883208A3E
:101AB000288270BD2DE9FE4F05460C464FF0000907
:101AC00002274FF000084FF0010B0026B24600201D
:101AD0000290019000908248854202D08148854260
:101AE00000D104E04FF4A5717FA000F06EFE2088C5
:101AF00058B12088B0F5807F07D02088B0F5007FEE
:101B000003D02088B0F5407F00D104E040F24B11B3
:101B100075A000F05AFE608858B16088102808D07F
:101B20006088202805D06088302802D06088B028DE
:101B300000D104E04FF4A6716BA000F046FEA0882F
:101B400040B1A088012805D0A088032802D0A08831
:101B5000052800D104E040F24D1163A000F035FEED
:101B6000E088B0F5007F01D0E08800B904E04FF4D0
:101B7000A7715DA000F029FEA068B0F5FA5F03D35D
:101B80006849A068884202D9A068022800D104E010
:101B900040F24F1154A000F018FEA08910B1A089A6
:101BA000082800D104E04FF4A8714FA000F00DFE0A
:101BB000A88B4FF240010840A88302202884B5F882
:101BC0001C90A068022803D14FF00008022754E0BF
:101BD000A08810B94FF0010B01E04FF0020B524802
:101BE000006800F4000028B14F48006820F40000AD
:101BF0004D4908604C487C300068C0F38810019063
:101C000049487C300068C0F3027000904648001FCD
:101C1000006800F03F00029044490298B1FBF0F0E8
:101C2000019948430099B0FBF1FAE088B0F5007FD4
:101C30000AD14FEA1A2000EB80004000A168B0FBF7
:101C4000F1F0401D86B20BE04FEA4B10BAFBF0F00A
:101C500000EB80004000A168B0FBF1F0401D86B2AF
:101C60000A20B6FBF0F606F00108A6EB0800C0F368
:101C70004F074FF6FF7000EA0828022F01DBFF2F05
:101C800002DD02274FF00008E08840EA08003843F0
:101C90002884A088A18908436188084321880843D3
:101CA00040F4006040EA0909A5F81C90BDE8FE8FE9
:101CB0000021018041808180C18001814181818139
:101CC000C18107210182704700210180418081800C
:101CD000C180022181600021818170470030014074
:101CE00000380040003C00404C69627261726965D6
:101CF000735C53544D3332463478785F5374645078
:101D000065726970685F4472697665725C7372634C
:101D10005C73746D3332663478785F7370692E63E8
:101D20000000000000EE02000838024000127A00B5
:101D300070B504460D46FB48844205D0FA488442FB
:101D400002D0FA48844200D105E040F20121AFF20E
:101D5000680000F03AFD0DB1012D00D105E040F220
:101D60000221AFF27C0000F030FD25B1208840F068
:101D70004000208004E020884FF6BF71084020809A
:101D800070BD70B504460D46E748844208D0E74868
:101D9000844205D0E648844202D0B4F1402F00D1FD
:101DA00005E040F21A21AFF2C00000F00EFD0DB1C7
:101DB000012D00D105E040F21B21AFF2D40000F06C
:101DC00004FD25B1A08B40F48060A08304E0A08BCB
:101DD0004FF6FF310840A08370BD70B504460D4634
:101DE000D048844205D0D048844202D0CF488442B3
:101DF00000D105E040F23521AFF2141000F0E5FC0F
:101E0000B5F5006F00D005B905E040F23621AFF21C
:101E1000281000F0DAFC20884FF2FF710840208083
:101E200020882843208070BD70B504460D46BD480B
:101E3000844205D0BC48844202D0BC48844200D1D0
:101E400005E040F24921AFF2601000F0BEFC4BF615
:101E5000FF70854202D0B5F5804F00D105E040F219
:101E60004A21AFF27C1000F0B0FCB5F5804F04D1F0
:101E7000208840F48040208004E020884BF6FF71E9
:101E80000840208070BD70B504460D46A5488442C8
:101E900005D0A548844202D0A448844200D105E080
:101EA00040F26321AFF2C01000F08FFCB5F5807FE7
:101EB00003D04FF6FF60854200D105E04FF4197161
:101EC000AFF2DC1000F081FC4FF6FF60854204D0D9
:101ED000208840F48070208004E020884FF6FF6165
:101EE0000840208070BD70B504460D468D48844280
:101EF00005D08D48844202D08C48844200D105E050
:101F000040F27B21AFF2202000F05FFC0DB1012DEB
:101F100000D105E04FF41F71AFF2342000F055FC02
:101F200025B1A08840F00400A08004E0A0884FF60E
:101F3000FB710840A08070BD70B504460D4679481D
:101F4000844205D07848844202D07848844200D147
:101F500005E040F29A21AFF2702000F036FC0DB19E
:101F6000012D00D105E040F29B21AFF2842000F06A
:101F70002CFC25B1A08840F01000A08004E0A088CF
:101F80004FF6EF710840A08070BD2DE9F041054685
:101F90000C46002600276648854202D0B5F1402F46
:101FA00000D105E040F2C121AFF2C42000F00DFCE9
:101FB000208858B12088B0F5807F07D02088B0F500
:101FC000007F03D02088B0F5407F00D105E040F2CB
:101FD000C221AFF2EC2000F0F8FB608858B16088B5
:101FE000102808D06088202805D06088302802D0CA
:101FF0006088B02800D105E040F2C321AFF218306C
:1020000000F0E3FBA08840B1A088012805D0A0889B
:10201000032802D0A088052800D105E04FF43171D3
:10202000AFF23C3000F0D1FBA08910B1A0890828A4
:1020300000D105E040F2C521AFF2543000F0C5FBFD
:10204000A88B4FF240010840A88302202884AE8B61
:102050002088B0F5007F01D0208810B94FF4807738
:1020600008E02088B0F5407F03D02088B0F5807F5D
:1020700000D10027A088A18908436188084338431C
:1020800040F400600643AE83BDE8F08110B504461D
:10209000244884420BD02448844208D023488442F8
:1020A00005D02348844202D0B4F1402F00D105E08E
:1020B00040F20A31AFF2D03000F087FBA08910BDAA
:1020C00070B504460D46174884420BD0164884422A
:1020D00008D01648844205D01548844202D0B4F195
:1020E000402F00D105E040F21A31AFF2044000F079
:1020F0006CFBA58170BD70B504460D46094884424D
:1021000005D00948844202D00848844200D105E045
:1021100040F27331AFF2304000F057FB0DB1012DAA
:1021200008D10DE00030014000380040003C004084
:10213000003400404FF45D71AFF2544000F045FBB5
:1021400025B1208840F40050208004E020884DF61E
:10215000FF710840208070BD10B50446D24884420B
:1021600005D0D248844202D0D148844200D105E053
:1021700040F28931AFF2904000F027FB208840F414
:102180008050208010BD70B504460D460026C6481C
:10219000844205D0C548844202D0C548844200D15B
:1021A00005E04FF46771AFF2C04000F00EFB0DB1D7
:1021B000012D00D105E040F29D31AFF2D44000F096
:1021C00004FB012D01D0268B00E0A68A304670BDAD
:1021D00010B50446B448844205D0B448844202D0C5
:1021E000B348844200D105E04FF46D71AFF208505E
:1021F00000F0EBFA208A10BD70B504460D46164675
:10220000A94884420BD0A948844208D0A8488442F7
:1022100005D0A848844202D0B4F1402F00D105E097
:1022200040F2D931AFF2405000F0CFFA0EB1012E9A
:1022300000D105E040F2DA31AFF2545000F0C5FAB7
:102240004FF6FC70284008B905B105E040F2DB31DB
:10225000AFF26C5000F0B9FA1EB1A0882843A080FC
:1022600002E0A088A843A08070BD2DE9F04104469B
:102270000D4616464FF0000800278B4884420BD0CD
:102280008A48844208D08A48844205D089488442DA
:1022900002D0B4F1402F00D105E04FF48961AFF2D4
:1022A000B85000F092FA0EB1012E00D105E040F2D4
:1022B0004941AFF2CC5000F088FA712D03D0602D67
:1022C00001D0502D00D105E040F24A41AFF2E85074
:1022D00000F07BFA4FEA2518012000FA08F087B2D7
:1022E0001EB1A0883843A08002E0A088B843A08037
:1022F000BDE8F08170B505460C4600266A48854267
:102300000BD06A48854208D06948854205D06948A3
:10231000854202D0B5F1402F00D105E040F2734173
:10232000AFF23C6000F051FA802C10D0402C0ED05F
:10233000202C0CD0102C0AD0082C08D0042C06D04D
:10234000022C04D0012C02D0B4F5807F00D105E02E
:1023500040F27441AFF2706000F037FA28892040F3
:1023600008B1012600E00026304670BD70B5044675
:102370000D464D4884420BD04C48844208D04C480E
:10238000844205D04B48844202D0B4F1402F00D1A2
:1023900005E040F29B41AFF2B06000F016FA102D5C
:1023A00000D105E040F29C41AFF2C46000F00DFAAC
:1023B000E843208170BD2DE9F04705460C46002713
:1023C000B8460026B146384885420BD0374885428A
:1023D00008D03748854205D03648854202D0B5F14D
:1023E000402F00D105E040F2B741AFF2047000F099
:1023F000ECF9602C0BD0712C09D0542C07D0552C43
:1024000005D0562C03D0532C01D0582C00D105E018
:102410004FF49761AFF2307000F0D7F904F00F017C
:10242000012088401FFA80F826110120B04086B2B2
:10243000A88800EA0609288900EA080020B1B9F155
:10244000000F01D0012700E000273846BDE8F087E3
:1024500070B504460D460026134884420BD013483D
:10246000844208D01248844205D01248844202D0E7
:10247000B4F1402F00D105E040F2EC41AFF298708A
:1024800000F0A3F9542D00D105E040F2ED41AFF288
:10249000A87000F09AF905F00F010120884086B27B
:1024A000F043208170BD0000003001400038004042
:1024B000003C0040003400400CB50020019000902A
:1024C0007648006840F480307449086000BF734863
:1024D000006800F4003000900198401C01900098C2
:1024E00018B90198B0F5A06FF1D16C48006800F4FC
:1024F000003010B10120009001E000200090009811
:10250000012846D165484030006840F0805063495A
:10251000403108606248006840F4804060490860CB
:102520005E48083000685D49083108600846006868
:1025300040F4004008600846006840F4A05008607D
:102540005848091F0860081F006840F08070091F84
:10255000086000BF5148006800F000700028F9D002
:1025600040F20560504908604C480830006820F08F
:1025700003004A49083108600846006840F002003C
:10258000086000BF45480830006800F00C000828CB
:10259000F8D10CBD10B54548006840F470004349BF
:1025A00008603E48006840F001003C490860002097
:1025B0003A4908310860394800683D4908403749C0
:1025C00008603C48091D0860081F006820F480204E
:1025D000091F0860002031490C310860FFF76CFFCB
:1025E0004FF0006031498039086010BD70B500209F
:1025F0000022022300240221284D08352D6805F011
:102600000C0020B1042806D0082834D107E02A4D58
:102610002A4E356033E02A4D284E35602FE01F4D9D
:102620002D1D2D68C5F380541C4D2D1D2D6805F002
:102630003F0154B1224DB5FBF1F5184E361D3668F9
:10264000C6F3881605FB06F209E01B4DB5FBF1F554
:10265000124E361D3668C6F3881605FB06F20F4D7E
:102660002D1D2D68C5F301456D1C6B00B2FBF3F504
:10267000124E356003E0104D104E356000BF00BFB4
:10268000064D08352D68C5F303150E4E705D0B4DD4
:102690002D68C540094E356070BD0000003802400D
:1026A0000070004008544007003C024088ED00E004
:1026B000FFFFF6FE103000240024F400100000207C
:1026C00000127A00140000200648804706480047A0
:1026D000FEE7FEE7FEE7FEE7FEE7FEE7FEE7FEE7D2
:1026E000FEE7FEE7952500088901000800F05BF889
:1026F00000BFFEE71CB50020012103464A02CDE9D8
:10270000001033A1334801F00AFA002006210346E5
:102710004FF40072CDE900102FA1304801F0FFF90D
:102720000020052103464FF40072CDE900102CA1D2
:102730002C4801F0F4F90020052103464FF4007203
:10274000CDE9001028A1294801F0E9F90020042171
:102750000346CA01CDE9001025A1294801F0DFF99F
:102760000020072103464FF48062CDE9001025A127
:10277000254801F0D4F91CBD10B500221821012014
:1027800000F014F92149086000220C21012000F01A
:102790000DF91F49086000224821012000F006F9C8
:1027A0001C49086010BD10B505F0FAF906F040FFAD
:1027B00007F0E0FA04F096F904F000FAFFF7DCFF06
:1027C000FFF798FF02F091F810BD00BFFEE7000090
:1027D0004C454400D16A000848494400459500082A
:1027E00041636300AB6E0008414B00007D70000840
:1027F00053656E736F725F5265636569766500003D
:10280000A5770008454B46008DC100082400002034
:10281000280000202C00002000F1080141604FF04A
:10282000FF31816000F10801C16001610021016098
:10283000704700210161704742684A6093688B606D
:10284000936859609160086103685B1C036070477E
:1028500010B502460B685C1C0CB9106907E002F168
:10286000080000E04068446824689C42FAD9446843
:102870004C604C68A160886041600A611468641C07
:10288000146010BD01460A69D1E901309860D1E9B0
:10289000010358605068884201D188685060002068
:1028A00008611068401E1060106870472DE9F04103
:1028B00005460E4601272C4654B900BF502080F330
:1028C0001188BFF34F8FBFF36F8F00BF00BFFEE7CC
:1028D000002C42D0E06B00283FD04FF0FF31E06B7E
:1028E000B1FBF0F0216C884237D303F018FED4E935
:1028F0000F12206801FB0200A0600020A063206886
:102900006060E06B401E226C216800FB0211E160F8
:10291000FF2084F8440084F845009EB9206908B976
:10292000012000E00020A8B904F1100002F007FA2D
:1029300080B14FF08050F6490860BFF34F8FBFF36E
:102940006F8F07E004F11000FFF766FF04F1240029
:10295000FFF762FF03F00AFE00E000270FB101203D
:1029600000E0002050B900BF502080F31188BFF371
:102970004F8FBFF36F8F00BF00BFFEE73846BDE843
:10298000F0812DE9F04106460D4617469846069C13
:102990000DB9246000E02760E6632564012120462C
:1029A000FFF784FF84F84C80BDE8F0812DE9F843FF
:1029B00005460E4617460024E5B1601EB0FBF5F053
:1029C000B04217D305FB06F010F1510F12D805FBEA
:1029D00006F808F1500003F071FE0446B4B1A146B8
:1029E00009F150093B464A46314628460094FFF714
:1029F000C8FF0BE054B900BF502080F31188BFF32B
:102A00004F8FBFF36F8F00BF00BFFEE72046BDE8CA
:102A1000F88370B5044603F082FD94F9455010E048
:102A2000606A08B9012000E0002038B904F12400F0
:102A300002F085F918B102F010FB00E003E0681E17
:102A400045B2002DECDC00BFFF2084F8450003F008
:102A50008DFD03F064FD94F9445010E0206908B93D
:102A6000012000E0002048B904F1100002F067F9ED
:102A700008B102F0F2FA681E45B200E001E0002D54
:102A8000ECDC00BFFF2084F8440003F06FFD70BD54
:102A900070B5054603F043FDA86BE96B884201D190
:102AA000012400E0002403F061FD204670BD2DE903
:102AB000F04104460F4615464FF00008A66B206C07
:102AC00048B9206800282CD1A06802F064FB804639
:102AD0000020A06025E07DB93946226C606809F0CD
:102AE00058FD216C606808446060D4E901018842A7
:102AF00017D32068606014E03946226CE06809F062
:102B000048FD216CE068411AE1602168E068884274
:102B100003D2216CA068411AE160022D01D106B1F7
:102B2000761E701CA0634046BDE8F0812DE9FF438E
:102B300083B0064688461D464FF00009344654B916
:102B400000BF502080F31188BFF34F8FBFF36F8F0A
:102B500000BF00BFFEE7B8F1000F01D1206C08B93B
:102B6000012000E0002050B900BF502080F3118800
:102B7000BFF34F8FBFF36F8F00BF00BFFEE7022D83
:102B800002D1E06B012801D1012000E0002050B902
:102B900000BF502080F31188BFF34F8FBFF36F8FBA
:102BA00000BF00BFFEE702F077FA08B9059808B940
:102BB000012000E0002050B900BF502080F31188B0
:102BC000BFF34F8FBFF36F8F00BF00BFFEE700BFA3
:102BD00003F0A5FCA06BE16B884201D3022D28D144
:102BE0002A4641462046FFF762FF0746606A08B959
:102BF000012000E0002068B904F1240002F09FF8F1
:102C000088B14FF0805042490860BFF34F8FBFF347
:102C10006F8F08E03FB14FF080503D490860BFF32F
:102C20004F8FBFF36F8F03F0A1FC012007B0BDE809
:102C3000F083059818B903F099FC0020F6E7B9F184
:102C4000000F04D101A802F0BDF94FF0010903F013
:102C50008DFC01F01EFA03F062FC94F94400401C64
:102C600010B9002084F8440094F94500401C10B9C4
:102C7000002084F8450003F079FC05A901A802F0C2
:102C8000A8F9F0B92046FFF703FFA0B104F1100046
:102C9000059901F0C4FF2046FFF7BBFE01F0E3F801
:102CA000002895D14FF0805019490860BFF34F8F2D
:102CB000BFF36F8F8CE72046FFF7ABFE01F0D3F830
:102CC00086E72046FFF7A5FE01F0CDF80020ADE72E
:102CD00010B5044654B10020A06020600021E160DE
:102CE00000231A4619462046FFF720FF10BD2DE9A4
:102CF000F041044601260027224600210120FFF76B
:102D000055FE05462846FFF7E3FF2846BDE8F0815B
:102D100004ED00E070B505462C4654B900BF5020C4
:102D200080F31188BFF34F8FBFF36F8F00BF00BFD9
:102D3000FEE702F0A1F9A16888420CD1E068401ECC
:102D4000E060E06828B900231A4619462046FFF7DC
:102D5000EDFE012600E00026304670BD01464A6ABD
:102D600022B10A6B1268C2F1100000E00020704727
:102D700070B5054603F0D3FBA86B08B9012400E049
:102D8000002403F0F3FB204670BD2DE9F34182B02F
:102D9000054600272C46B84654B900BF502080F3A2
:102DA0001188BFF34F8FBFF36F8F00BF00BFFEE7E7
:102DB000206C08B9012000E0002050B900BF50206D
:102DC00080F31188BFF34F8FBFF36F8F00BF00BF39
:102DD000FEE702F061F908B9039808B9012000E0A4
:102DE000002050B900BF502080F31188BFF34F8FEF
:102DF000BFF36F8F00BF00BFFEE700BF03F08FFB84
:102E0000A66BFEB1701EA063206810B902F0E0FA54
:102E1000A060206908B9012000E0002060B904F139
:102E2000100001F08CFF38B14FF08050F649086077
:102E3000BFF34F8FBFF36F8F03F098FB012004B0F7
:102E4000BDE8F081039818B903F090FB0020F6E785
:102E50001FB9684602F0B6F8012703F087FB01F0BE
:102E600018F903F05CFB94F94400401C10B90020F1
:102E700084F8440094F94500401C10B9002084F8FF
:102E8000450003F073FB03A9684602F0A2F840BBBB
:102E90002046FFF76DFFF0B1206838B903F03FFB23
:102EA000A06802F005F9804603F060FB04F12400FD
:102EB000039901F0B4FE2046FFF7ABFD00F0D3FF0D
:102EC00000289BD14FF08050CF490860BFF34F8F4F
:102ED000BFF36F8F92E72046FFF79BFD00F0C3FF23
:102EE0008CE72046FFF795FD00F0BDFF2046FFF779
:102EF0003FFF002882D0B8F1000F0BD003F00FFB8A
:102F00002046FFF72BFF06463146A06802F0B8F9CD
:102F100003F02CFB002092E72DE9F04106460F4616
:102F2000344654B900BF502080F31188BFF34F8F4F
:102F3000BFF36F8F00BF00BFFEE702F09DF8A168EE
:102F4000884204D1E068401CE060012508E0394671
:102F50002046FFF71AFF054615B1E068401CE06007
:102F60002846BDE8F08170B505460E46002455B1EF
:102F7000AE4208D8022200212846FFF717FD04467A
:102F80006CB1A6630BE054B900BF502080F31188E8
:102F9000BFF34F8FBFF36F8F00BF00BFFEE7204628
:102FA00070BD2DE9FC5F80468B4691461E46444627
:102FB00054B900BF502080F31188BFF34F8FBFF387
:102FC0006F8F00BF00BFFEE7BBF1000F01D1206C87
:102FD00008B9012000E0002050B900BF502080F364
:102FE0001188BFF34F8FBFF36F8F00BF00BFFEE7A5
:102FF000022E02D1E06B012801D1012000E0002067
:1030000050B900BF502080F31188BFF34F8FBFF33A
:103010006F8F00BF00BFFEE703F0DCFA00BF502156
:10302000EFF3118081F31188BFF34F8FBFF36F8FE0
:1030300000BF0546A06BE16B884201D3022E3CD154
:1030400094F94570A06B0190324659462046FFF72F
:103050002EFD781C88B9606A08B9012000E00020C4
:1030600050B904F1240001F06AFE28B1B9F1000F53
:1030700002D00120C9F800001CE000BF01F096FC5E
:1030800000900098874214D27F2F01D0012000E0E9
:10309000002050B900BF502080F31188BFF34F8F3C
:1030A000BFF36F8F00BF00BFFEE7781C40B284F80B
:1030B000450000BF4FF0010A01E04FF0000A00BFD9
:1030C00085F3118800BF5046BDE8FC9F2DE9F05FF5
:1030D000074688463C4654B900BF502080F311880B
:1030E000BFF34F8FBFF36F8F00BF00BFFEE7206CB1
:1030F00008B9012000E0002050B900BF502080F343
:103100001188BFF34F8FBFF36F8F00BF00BFFEE783
:10311000206808B9A06808B9012000E0002050B973
:1031200000BF502080F31188BFF34F8FBFF36F8F24
:1031300000BF00BFFEE703F04DFA00BF5021EFF3E0
:10314000118081F31188BFF34F8FBFF36F8F00BFE2
:103150000546D4F838A0E06B504537D994F945605E
:103160000AF10100A063701C88B9606A08B90120E7
:1031700000E0002038BB04F1240001F0E0FD10B3B2
:10318000B8F1000F1FD00120C8F800001BE000BFFD
:1031900001F00CFC83465E4514D27F2E01D0012045
:1031A00000E0002050B900BF502080F31188BFF329
:1031B0004F8FBFF36F8F00BF00BFFEE7701C40B2A0
:1031C00084F8450000BF4FF0010901E04FF000090D
:1031D00000BF85F3118800BF4846BDE8F09F70B579
:1031E00004460D46206C70B1216CE0680144E1603A
:1031F000D4E90210884201D32168E1602846226C9C
:10320000E16809F0C6F970BD04ED00E02DE9F74171
:1032100083B005460E464FF000082C4654B900BF57
:10322000502080F31188BFF34F8FBFF36F8F00BF23
:1032300000BFFEE70EB9206C08B9012000E00020B5
:1032400050B900BF502080F31188BFF34F8FBFF3F8
:103250006F8F00BF00BFFEE701F01EFF08B90598A1
:1032600008B9012000E0002050B900BF502080F3D1
:103270001188BFF34F8FBFF36F8F00BF00BFFEE712
:1032800000BF03F04CF9A76BF7B131462046FFF7BA
:10329000A6FF781EA063206908B9012000E0002085
:1032A00060B904F1100001F04AFD38B14FF08050D0
:1032B000FC490860BFF34F8FBFF36F8F03F056F9DF
:1032C000012006B0BDE8F081059818B903F04EF969
:1032D0000020F6E7B8F1000F04D101A801F072FE5A
:1032E0004FF0010803F042F900F0D3FE03F017F9A4
:1032F00094F94400401C10B9002084F8440094F96B
:103300004500401C10B9002084F8450003F02EF958
:1033100005A901A801F05DFEF0B92046FFF728FDE0
:10332000A0B104F12400059901F079FC2046FFF7D3
:1033300070FB00F098FD0028A3D14FF08050D949D0
:103340000860BFF34F8FBFF36F8F9AE72046FFF7F8
:1033500060FB00F088FD94E72046FFF75AFB00F081
:1033600082FD2046FFF704FD00288AD00020A8E750
:103370002DE9F74382B005460E464FF000082C4673
:1033800054B900BF502080F31188BFF34F8FBFF3B3
:103390006F8F00BF00BFFEE70EB9206C08B9012097
:1033A00000E0002050B900BF502080F31188BFF327
:1033B0004F8FBFF36F8F00BF00BFFEE701F06CFEC1
:1033C00008B9049808B9012000E0002050B900BFF6
:1033D000502080F31188BFF34F8FBFF36F8F00BF72
:1033E00000BFFEE700BF03F09AF8D4F83890B9F1B7
:1033F000000F1ED0E76831462046FFF7F0FEE76079
:10340000606A08B9012000E0002060B904F12400DE
:1034100001F095FC38B14FF08050A2490860BFF32D
:103420004F8FBFF36F8F03F0A1F8012005B0BDE807
:10343000F083049818B903F099F80020F6E7B8F182
:10344000000F04D1684601F0BDFD4FF0010803F004
:103450008DF800F01EFE03F062F894F94400401C61
:1034600010B9002084F8440094F94500401C10B9BC
:10347000002084F8450003F079F804A9684601F0BB
:10348000A8FDF0B92046FFF773FCA0B104F12400B9
:10349000049901F0C4FB2046FFF7BBFA00F0E3FCFF
:1034A0000028A0D14FF080507E490860BFF34F8FB5
:1034B000BFF36F8F97E72046FFF7ABFA00F0D3FC1E
:1034C00091E72046FFF7A5FA00F0CDFC2046FFF774
:1034D0004FFC002887D00020A8E72DE9F84F0746C9
:1034E0008A4690463C4654B900BF502080F311886C
:1034F000BFF34F8FBFF36F8F00BF00BFFEE7BAF17E
:10350000000F01D1206C08B9012000E0002050B963
:1035100000BF502080F31188BFF34F8FBFF36F8F30
:1035200000BF00BFFEE703F055F800BF5021EFF3E6
:10353000118081F31188BFF34F8FBFF36F8F00BFEE
:103540000546D4F838B0BBF1000F3CD094F9446084
:1035500051462046FFF743FEABF10100A063701C0B
:1035600088B9206908B9012000E0002040BB04F1BF
:10357000100001F0E4FB18B3B8F1000F20D00120D7
:10358000C8F800001CE000BF01F010FA009000989D
:10359000864214D27F2E01D0012000E0002050B9D5
:1035A00000BF502080F31188BFF34F8FBFF36F8FA0
:1035B00000BF00BFFEE7701C40B284F8440000BFAB
:1035C0004FF0010901E04FF0000900BF85F31188B9
:1035D00000BF4846BDE8F88F2DE9F047064688460B
:1035E000344654B900BF502080F31188BFF34F8F89
:1035F000BFF36F8F00BF00BFFEE7B8F1000F01D12E
:10360000206C08B9012000E0002050B900BF502014
:1036100080F31188BFF34F8FBFF36F8F00BF00BFE0
:10362000FEE7206C08B1012000E0002050B900BF87
:10363000502080F31188BFF34F8FBFF36F8F00BF0F
:1036400000BFFEE702F0C6FF00BF5021EFF311807C
:1036500081F31188BFF34F8FBFF36F8F00BF054613
:10366000A06B48B1D4F80C9041462046FFF7B7FD57
:10367000C4F80C90012700E0002700BF85F31188F3
:1036800000BF3846BDE8F08770B5044664B900BF96
:10369000502080F31188BFF34F8FBFF36F8F00BFAF
:1036A00000BFFEE704ED00E002F039FFA56B02F079
:1036B0005DFF284670BD70B50446254655B900BF6C
:1036C000502080F31188BFF34F8FBFF36F8F00BF7F
:1036D00000BFFEE702F023FFD5E90E10461A02F004
:1036E00045FF304670BD10B501460A4652B900BFCD
:1036F000502383F31188BFF34F8FBFF36F8F00BF49
:1037000000BFFEE7906B10BD014651B900BF5022CB
:1037100082F31188BFF34F8FBFF36F8F00BF00BFDD
:10372000FEE700200EE06B4A02EBC00252688A42BC
:1037300007D10022674B43F8302003EBC0035A60E7
:1037400002E0401C0828EED300BF704770B5044665
:10375000254655B900BF502080F31188BFF34F8F25
:10376000BFF36F8F00BF00BFFEE72846FFF7CCFF17
:10377000284603F0D8F870BD0146886C7047816414
:103780007047014691F84C0070470146086C70473D
:103790000146C86B704710B501460A4652B900BFD2
:1037A000502383F31188BFF34F8FBFF36F8F00BF98
:1037B00000BFFEE7936B0BB9012000E0002010BDB5
:1037C00010B501460A4652B900BF502383F3118851
:1037D000BFF34F8FBFF36F8F00BF00BFFEE7936B48
:1037E000D46BA34201D1012000E0002010BD30B510
:1037F00002460B46002152B900BF502484F31188C1
:10380000BFF34F8FBFF36F8F00BF00BFFEE7BBB1A9
:10381000002012E02F4C04EBC0046468944203D1F2
:103820002C4C04EBC0010AE031B92A4C54F830406A
:1038300014B9284C04EBC001401C0828EAD300BF8F
:1038400009B10B604A6030BD10B50246002052B984
:1038500000BF502383F31188BFF34F8FBFF36F8FE7
:1038600000BF00BFFEE700210AE01A4B03EBC103D3
:103870005B68934203D1174B53F8310002E0491CB7
:103880000829F2D300BF10BD2DE9F04105460E46D0
:1038900017462C4602F043FE94F94400401C10B930
:1038A000002084F8440094F94500401C10B9002021
:1038B00084F8450002F05AFEA06B28B93A4631461A
:1038C00004F1240001F00AFA2046FFF7A2F8BDE84F
:1038D000F0810000CC0100202DE9F05F82460F4608
:1038E00090469B460A9E0C9C4FEA8801A522206BBD
:1038F00008F061FEA8F10100216B01EB800929F0BD
:10390000070909F0070008B9012000E0002050B9BC
:1039100000BF502080F31188BFF34F8FBFF36F8F2C
:1039200000BF00BFFEE77FB1002507E0795D04F12D
:1039300034004155785D00B902E06D1C0A2DF5D3C5
:1039400000BF00213D200155102E01D2012000E0D2
:10395000002050B900BF502080F31188BFF34F8F73
:10396000BFF36F8F00BF00BFFEE7102E00D30F26FE
:10397000E662A664201DFEF75CFF04F11800FEF766
:1039800058FF2461C6F11000A06164625A46514696
:10399000484602F0E5FC20600B9808B10B980460E3
:1039A000BDE8F09F2DE9FF5F074688461646994619
:1039B000DDE90EABB00002F081FE054675B158207E
:1039C00002F07CFE04462CB15821204608F0FAFD96
:1039D000256304E0284602F0A6FF00E0002454B16D
:1039E00000204B4632464146CDE900ABCDE90240CE
:1039F0003846FFF771FF204604B0BDE8F09F10B5D0
:103A0000002407E004EB8401F64A02EB8100FEF794
:103A100003FF641C102CF5D3F348FEF7FDFEF348BA
:103A2000FEF7FAFEF248FEF7F7FEF248FEF7F4FE64
:103A3000F148FEF7F1FEEC48F0490860EB48F04928
:103A4000086010BD10B5044602F069FDED4800683D
:103A5000401CEC490860EC48006840B9EA48046042
:103A60000846006801280DD1FFF7C9FF0AE0E748C2
:103A7000006838B9E4480068C06AE16A884201D841
:103A8000E1480460E2480068401CE14908600846DB
:103A90000068206400BF94F82C1001208840DD49A4
:103AA00009680843DB49086000BFE16A01EB810156
:103AB000CC4A02EB81014868A0608268E260211D67
:103AC000826851608160E16A01EB8101C54A02EBC5
:103AD00081026261E16A01EB8101C24A52F8211060
:103AE000491CE26A02EB8202BE4B43F8221000BF7F
:103AF00000BF02F03BFDC548006878B100BFC24876
:103B00000068C06AE16A884207D24FF08050C2491B
:103B10000860BFF34F8FBFF36F8F00BF10BD2DE95B
:103B2000FC5F06460F4690469946DDE90CAB4B46D6
:103B3000424639463046CDE900ABFFF733FF054634
:103B400025B12846FFF77EFF012401E04FF0FF3446
:103B50002046BDE8FC9F10B50446206B02F0E3FE52
:103B6000204602F0E0FE10BDA4480068006808B9D5
:103B7000012000E0002020B14FF0FF30A74908608D
:103B800005E09E480068C0680068A4490860704766
:103B90002DE9F0410546002602F0C1FC15B99A480E
:103BA000006800E028460446201DFEF76BFE88B939
:103BB00000BFE06A00EB80008A4951F8200040B95C
:103BC00094F82C100120884092490968814391485B
:103BD000016000BFA06A18B104F11800FEF752FEA0
:103BE0008B480068401C8A49086087480068844206
:103BF00001D1012000E0002007468448006858B148
:103C000057B1211D7B48FEF717FE85480068401C10
:103C100083490860012606E07A480068401E794919
:103C20000860FFF7A1FF02F0A1FC012E02D02046A0
:103C3000FFF791FF75480068E8B173480068844257
:103C400019D17848006808B9012000E0002050B977
:103C500000BF502080F31188BFF34F8FBFF36F8FE9
:103C600000BF00BFFEE74FF080506B490860BFF314
:103C70004F8FBFF36F8FBDE8F0812DE9F0414FF01A
:103C800000086848006800287DD167480068451C26
:103C9000654805601DBB00BF58480068006808B94A
:103CA000012000E0002050B900BF502080F31188AF
:103CB000BFF34F8FBFF36F8F00BF00BFFEE74F48CA
:103CC00007684F4800684D4908604D4807605748ED
:103CD0000068401C55490860FFF746FF00BF4F4889
:103CE000006885427CD300BF44480068006808B97A
:103CF000012000E0002020B14FF0FF30474908606C
:103D000096E03E480068C068C4686668B54202D262
:103D1000424806608CE000BF6069D4E902128A6004
:103D2000D4E902214A60211D42688A4201D1E1683A
:103D30004160002262610168491E016000BFA06A03
:103D4000A0B100BFA06AD4E907128A60D4E90721B4
:103D50004A6004F1180142688A4201D1216A416037
:103D60000022A2620168491E016000BF00BF94F8F2
:103D70002C1001208840274909680843254908601C
:103D800000BFE16A00E066E001EB8101154A02EB49
:103D900081014868A0608268E260211D82685160EC
:103DA0008160E16A01EB81010E4A02EB81026261EE
:103DB000E16A01EB81010B4A52F82110491CE26AC9
:103DC00002EB8202074B43F8221000BF00BF0E49EE
:103DD000E06A0968C96A884286D94FF0010883E71A
:103DE00027E000000C0200204C03002060030020AC
:103DF00074030020880300209C030020340000206E
:103E00003800002040000020300000204C0000203E
:103E10005C0000204800002004ED00E0600000206D
:103E20003C0000206C0000204400002058000020CE
:103E300000BFF9480068C06A00EB8000F74951F8FC
:103E40002000012801D94FF00108F548006808B1A9
:103E50004FF0010804E0F3480068401CF149086095
:103E60004046BDE8F0812DE9F0410024002702F032
:103E700056FB0025EC48006808B1012000E0002056
:103E800050B900BF502080F31188BFF34F8FBFF3AC
:103E90006F8F00BF00BFFEE7E3480068401EE249A5
:103EA00008600846006800287ED1E04800680028C5
:103EB0007AD064E0DE48C068C46800BFA06AD4E974
:103EC00007128A60D4E907214A6004F118014268A8
:103ED0008A4201D1216A41600022A2620168491E22
:103EE000016000BF00BF6069D4E902128A60D4E9B2
:103EF00002214A60211D42688A4201D1E168416085
:103F0000002262610168491E016000BF00BF94F891
:103F10002C1001208840C74909680843C54908603A
:103F200000BFE16A01EB8101BC4A02EB81014868F4
:103F3000A0608268E260211D826851608160E16A50
:103F400001EB8101B54A02EB81026261E16A01EB9A
:103F50008101B24A52F82110491CE26A02EB820246
:103F6000AE4B43F8221000BF00BFAB49E06A0968BE
:103F7000C96A884203D90120A94941F82500AC4803
:103F8000006808B9012000E00020002892D00CB1A0
:103F9000FFF7EAFDA34806687EB100BFFFF76DFE9C
:103FA00028B101209E4900E017E041F82500761E67
:103FB000002EF3D100209B490860994850F8250055
:103FC00058B1012700BF9448006838079A49086033
:103FD000BFF34F8FBFF36F8F00BF02F0C7FA3846B1
:103FE000BDE8F0812DE9F04705460E469348076885
:103FF0009348D0F800809348D0F800908648006835
:10400000001DFEF73FFC50B98348006890F82C1063
:104010000120884087490968814386480160681CFF
:10402000E0B9DEB100BF884948687B49096888600B
:10403000794982680968CA6077490968091D8268F8
:10404000516075490968091D81607F4A7249096894
:104050004A6111460968491C116018E07C196E48D4
:1040600000684460BC4206D26B480168091D48469E
:10407000FEF7EEFB0BE068480168091D4046FEF7BD
:10408000E7FB72480068844201D270480460BDE8D2
:10409000F08765480068401C6349086070472DE957
:1040A000F04704460F464FF0000954B900BF5020B6
:1040B00080F31188BFF34F8FBFF36F8F00BF00BF36
:1040C000FEE70FB1012000E0002050B900BF5020F2
:1040D00080F31188BFF34F8FBFF36F8F00BF00BF16
:1040E000FEE7FFF7D6FF554806684F4800680128ED
:1040F00000D100E0002050B900BF502080F31188AB
:10410000BFF34F8FBFF36F8F00BF00BFFEE7206884
:10411000C5192068B04207D92068A8420BD9B5421A
:1041200009D94FF0010906E02068A84201D8B5423C
:1041300001D94FF001092560B9F1000F03D0A81B88
:104140000021FFF74FFFFFF78EFE8046B8F1000F0A
:1041500007D14FF0805038490860BFF34F8FBFF34D
:104160006F8F4846BDE8F08770B504460025D4B18E
:10417000FFF78FFF2C480068012800D100E00020E5
:1041800050B900BF502080F31188BFF34F8FBFF3A9
:104190006F8F00BF00BFFEE700212046FFF722FF20
:1041A000FFF761FE05463DB94FF080502249086097
:1041B000BFF34F8FBFF36F8F70BD2DE9F0470746F8
:1041C0003E4656B900BF502080F31188BFF34F8F91
:1041D000BFF36F8F00BF00BFFEE70F480068864245
:1041E00001D1002451E002F09AF97569D6F82880CF
:1041F0001348D0F800901348D0F800A002F0B6F9A8
:104200000B48804501D101243FE04D4501D0554583
:104210001ED1022439E00000300000200C020020F2
:1042200054000020500000206C00002040000020BE
:10423000740300204800002004ED00E0440000204A
:1042400034000020380000209C0300206000002083
:10425000F948854212D1B06A70B90324002007E002
:1042600006F15401095C012901D1022402E0401C3D
:104270000128F5DB00BF08E0022406E0EF48854294
:1042800000D00DB9042400E001242046BDE8F087E9
:1042900070B5044602F043F914B9E948006800E03B
:1042A00020460646F56A02F061F9284670BD2DE900
:1042B000F041054602F08EF900BF5021EFF3118066
:1042C00081F31188BFF34F8FBFF36F8F00BF044698
:1042D00015B9DB48006800E028460746FE6A00BFC3
:1042E00084F3118800BF3046BDE8F08170B5044604
:1042F00002F015F914B9D248006800E020460646DD
:10430000B56C02F033F9284670BD2DE9F041054641
:1043100002F060F900BF5021EFF3118081F31188A2
:10432000BFF34F8FBFF36F8F00BF044615B9C4486A
:10433000006800E028460746BE6C00BF84F3118881
:1043400000BF3046BDE8F0812DE9F04780460D46BC
:104350004FF00009102D01D2012000E0002050B9DB
:1043600000BF502080F31188BFF34F8FBFF36F8FD2
:1043700000BF00BFFEE7102D00D30F2502F0CFF8DD
:10438000B8F1000F02D1AE48006800E04046044694
:10439000A66CAE427CD0B5420BD9A94800688442D5
:1043A00011D0A7480068C06AA8420CD24FF001099A
:1043B00009E0A3480068844201D1012000E0002008
:1043C000012800D18146E76AE16AA06C884202D0E8
:1043D000E06AA84200D2E562A564A06900F000404E
:1043E00010B9C5F11000A06107EB8701954A02EBF7
:1043F00081016069884201D1012000E00020C8B33A
:10440000201DFEF73FFA30B90120B8408E490968F7
:1044100081438D48016000BF94F82C100120884032
:104420008949096808438849086000BFE16A01EBCF
:104430008101844A02EB81014868A0608268E260E1
:10444000211D826851608160E16A01EB81017D4A32
:1044500002EB81026261E16A01EB8101794A52F863
:104460002110491CE26A02EB8202764B43F82210CB
:1044700000BF00BFB9F1000F09D000BF4FF080505E
:1044800072490860BFF34F8FBFF36F8F00BF00BF4B
:1044900002F06CF8BDE8F0876D48006818B10120A3
:1044A0006C49086036E000206A49086000BF664831
:1044B0000068B0FA80F0C0F11F0101EB8100614A91
:1044C00052F8200008B1012000E0002050B900BFE0
:1044D000502080F31188BFF34F8FBFF36F8F00BF61
:1044E00000BFFEE700BF01EB8102564B03EB8200E9
:1044F00042685268426000F108024368934201D169
:10450000C26842604268D2684D4B1A6000BF00BF6B
:1045100018460068704770B5054602F000F815B9F6
:104520004748006800E028460446201DFEF7AAF927
:1045300088B900BFE06A00EB8000424951F82000D2
:1045400040B994F82C10012088403F490968814304
:104550003D48016000BFA06A18B104F11800FEF7E1
:1045600091F9211D3448FEF767F9002009E004F1B4
:104570005401095C012903D1002204F154010A54B9
:10458000401C0128F3DB01F0F1FF3348006828B13B
:1045900001F0C5FFFFF7E8FA01F0E8FF28480068DE
:1045A000844229D12C480068D0B12948006808B954
:1045B000012000E0002050B900BF502080F3118896
:1045C000BFF34F8FBFF36F8F00BF00BFFEE74FF009
:1045D00080501E490860BFF34F8FBFF36F8F0BE011
:1045E000154806681D480068864203D1002014491A
:1045F000086001E0FFF750FF70BD10B502460023D0
:10460000114652B900BF502080F31188BFF34F8F7D
:10461000BFF36F8F00BF00BFFEE7074C4869A042A1
:1046200001D1012000E0002098B30D4C886AA0421F
:1046300018D1012017E000009C030020880300200F
:10464000300000200C0200204800002004ED00E0B3
:104650006C000020540000204C000020400000208E
:10466000740300200020A0B9886A08B9012000E086
:10467000002070B10123002007E001F15404245C04
:10468000012C01D1002302E0401C0128F5DB00BF12
:1046900000BF184610BD70B505462C4655B900BF81
:1046A000502080F31188BFF34F8FBFF36F8F00BF8F
:1046B00000BFFEE7F848006884424CD0002C4AD086
:1046C00001F02DFF2046FFF798FF002841D0201D64
:1046D000FEF7D8F800BF94F82C1001208840EF496D
:1046E00009680843ED49086000BFE16A01EB8101F8
:1046F000EB4A02EB81014868A0608268E260211DFC
:10470000826851608160E16A01EB8101E44A02EB59
:1047100081026261E16A01EB8101E14A52F82110F4
:10472000491CE26A02EB8202DD4B43F8221000BF13
:1047300000BF00BFD8480068C06AE16A884207D25B
:104740004FF08050D7490860BFF34F8FBFF36F8F92
:1047500000BF01F00BFF70BD2DE9F04106460027B8
:10476000344656B900BF502080F31188BFF34F8FF5
:10477000BFF36F8F00BF00BFFEE701F02BFF00BF4C
:104780005021EFF3118081F31188BFF34F8FBFF3F6
:104790006F8F00BF05462046FFF72FFF002844D04B
:1047A000C148006800283BD1BB49E06A0968C96A72
:1047B000884203D901270120BC490860201DFEF76B
:1047C00061F800BF94F82C1001208840B3490968B3
:1047D0000843B249086000BFE16A01EB8101B04AB9
:1047E00002EB81014868A0608268E260211D826856
:1047F00051608160E16A01EB8101A94A02EB81020B
:104800006261E16A01EB8101A54A52F82110491C5D
:10481000E26A02EB8202A24B43F8221000BF04E0DE
:1048200004F11801A248FEF707F800BF85F31188CC
:1048300000BF3846BDE8F08110B516E001F06FFE0C
:104840009C48C068C468201DFEF71CF89A480068A0
:10485000401E9949086099480068401E97490860C1
:1048600001F084FE2046FFF776F99448006800289E
:10487000E4D110BD00BFFFF7DFFF894800680128C1
:10488000F9D94FF0805087490860BFF34F8FBFF3CD
:104890006F8FF0E7F0B585B001260027002408E00F
:1048A00087A0005D02A9085502A8005D00B902E0DA
:1048B000641C0A2CF4DB00BF002510E0824F834803
:1048C00000EB850000210B468222CDE9001002A9F1
:1048D0003846FFF724F9064606B902E06D1C012DA3
:1048E000ECDB00BF304605B0F0BD10B5FFF7D2FFDE
:1048F0000446012C02D101F02BFB0446012C15D1FA
:1049000000BF502080F31188BFF34F8FBFF36F8F2C
:1049100000BF4FF0FF306E49086001206D4908600C
:1049200000206D49086001F040FD10E0601C08B1F6
:10493000012000E0002050B900BF502080F3118812
:10494000BFF34F8FBFF36F8F00BF00BFFEE7634819
:10495000006810BD70B501F0FEFB0546FFF718F9C1
:10496000002405E0594951F82400FFF711F9641CAF
:10497000012CF7DBFFF760FF00BF502080F31188A8
:10498000BFF34F8FBFF36F8F00BF00205149086006
:1049900001F0B0FD70BD50490868704770B501F076
:1049A00019FE00254C480468204670BD4248006846
:1049B0007047014611B93848006800E008460246D1
:1049C00052B900BF502080F31188BFF34F8FBFF35F
:1049D0006F8F00BF00BFFEE702F134007047014651
:1049E000002001E0491C401C0A78A52AFAD0800862
:1049F00070472DE9F04107460C4690461E4617B910
:104A00002548006800E038460546256005F1340079
:104A10006060E86A2061286BE061286CA060A86C87
:104A200060610020A061052E5AD01B4800688542B5
:104A300001D1012000E00020012802D100202073D4
:104A400052E02673032E17D1FFF723FBA86A10B19B
:104A5000022020730EE0002008E005F15401095CFB
:104A6000012902D10221217302E0401C0128F4DB5C
:104A700000BF00BFFFF7F7F901F051FD0C49A86A2C
:104A8000884201D1012000E0002008B101202073FC
:104A900001F06CFD28E000003000002048000020FC
:104AA0000C02002004ED00E06C0000205400002007
:104AB0007403002088030020400000203C000020F8
:104AC00049444C450000000075480008640000207F
:104AD000600000204C0000204400002068000020FE
:104AE0002846FFF76AFB2073B8F1000F04D0286B4B
:104AF000FFF775FF206201E000202062BDE8F08131
:104B00002DE9F04707460C469046002604F10809B7
:104B1000B246206880B1E5680CE0D5F80CA006EB41
:104B2000C60007EB8001434601225046FFF761FFB4
:104B3000761C6D684D45F0D13046BDE8F0872DE913
:104B4000F04105468846164600241027FFF7A1FAD3
:104B5000FE480068804539D300BF7F1E07EB8702FF
:104B6000FB4B03EB820104EBC40205EB8200012244
:104B7000FFF7C6FF0444002FEFD104EBC40105EB9F
:104B800081000222F3490968FFF7BAFF044404EBED
:104B9000C40105EB81000222EF490968FFF7B0FF6D
:104BA000044404EBC40105EB81000422EB49FFF748
:104BB000A7FF044404EBC40105EB81000322E8498C
:104BC000FFF79EFF04440EB100203060FFF74BF961
:104BD0002046BDE8F08170B50446E248006808B997
:104BE000012000E0002050B900BF502080F3118860
:104BF000BFF34F8FBFF36F8F00BF00BFFEE7FFF71C
:104C000048FA01F08CFCD84800682044D649086076
:104C100001F0ACFCFFF727F90546284670BD70B5DA
:104C200004460D4654B900BF502080F31188BFF3ED
:104C30004F8FBFF36F8F00BF00BFFEE7CB48016807
:104C400018312046FDF704FE01212846FFF7CAF976
:104C500070BD70B504460D46164654B900BF5020CD
:104C600080F31188BFF34F8FBFF36F8F00BF00BF7A
:104C7000FEE7BC48006808B1012000E0002050B900
:104C800000BF502080F31188BFF34F8FBFF36F8FA9
:104C900000BF00BFFEE745F00040B44909688861E5
:104CA00000BF6068B1490968C861B0498268096895
:104CB0000A62AE490968183182685160AB490968D7
:104CC00018318160A94909688C622168491C2160FA
:104CD00000BF01213046FFF785F970BD70B504466D
:104CE0000E46154654B900BF502080F31188BFF31B
:104CF0004F8FBFF36F8F00BF00BFFEE700BF60683C
:104D00009A490968C8619949826809680A6297499D
:104D100009681831826851609449096818318160C6
:104D2000924909688C622168491C216000BF0DB15D
:104D30004FF0FF3629463046FFF754F970BD70B585
:104D40000346D868C16851B900BF502080F311886C
:104D5000BFF34F8FBFF36F8F00BF00BFFEE700BFF1
:104D6000886AD1E90745A560D1E90754656001F17A
:104D700018044568A54201D10C6A446000258D6283
:104D80000468641E046000BF76480068002842D1B1
:104D900000BF4869D1E90245A560D1E902546560C8
:104DA0000C1D4568A54201D1CC68446000254D61C9
:104DB0000468641E046000BF00BF91F82C4001200D
:104DC000A0406B4C24682043694C206000BFCC6A33
:104DD00004EB84045E4D05EB84046068886085689C
:104DE000CD600C1D85686C608460CC6A04EB840423
:104DF000574D05EB84054D61CC6A04EB8404544D9A
:104E000055F82440641CCD6A05EB8505504E46F8E4
:104E1000254000BF11E000BF564C6068C86185683E
:104E20000D6201F1180485686C608460514D8D62DB
:104E30002C462468641C2C6000BF4C4CC86A246853
:104E4000E46AA04204D9012201204B4C206000E01A
:104E50000022104670BD70B502460B4641490968F4
:104E600009B1012100E0002151B900BF502181F3B7
:104E70001188BFF34F8FBFF36F8F00BF00BFFEE7F6
:104E800043F000411160D06850B900BF502181F358
:104E90001188BFF34F8FBFF36F8F00BF00BFFEE7D6
:104EA00000BF1169D2E90154AC60D2E901456C60E0
:104EB0004C68944201D194684C60002414610C68E1
:104EC000641E0C6000BF00BF4169D0E90245A560C7
:104ED000D0E902546560041D4D68A54201D1C46843
:104EE0004C60002545610C68641E0C6000BF00BF6B
:104EF00090F82C400121A1401D4C246821431C4CFA
:104F0000216000BFC46A04EB8404114D05EB8404E6
:104F1000616881608D68C560041D8D686C608C60FF
:104F2000C46A04EB84040A4D05EB84054561C46A38
:104F300004EB8404064D55F82440641CC56A05EB57
:104F40008505034E46F8254000BF17E040000020CD
:104F50000C020020340000203800002088030020CC
:104F60009C0300206C000020500000203000002036
:104F700048000020740300205400002000BFFE4CB5
:104F8000C16A2468E46AA14202D90121FB4C216074
:104F900070BD10B5044654B900BF502080F311888D
:104FA000BFF34F8FBFF36F8F00BF00BFFEE701F06D
:104FB000B6FAF34800682060F2480068606001F0CB
:104FC000D5FA10BDEE4909680160EE4909684160F3
:104FD000704770B505460C4655B900BF502080F3A8
:104FE0001188BFF34F8FBFF36F8F00BF00BFFEE785
:104FF00054B900BF502080F31188BFF34F8FBFF327
:105000006F8F00BF00BFFEE701F089FADD4802683C
:105010006868131A2068401C08B9002619E0D849AE
:1050200028680968884206D06868904203D801263B
:10503000002020600DE02068984207D92068C01A3F
:1050400020602846FFF7BEFF002602E00020206017
:10505000012601F08BFA304670BD0120C749086077
:105060007047014611B10A46506C00E000207047BD
:1050700008B1024651647047BF490868704701464D
:105080000020002903DB012901DA012200E00022CF
:105090000AB1B94A10687047BB49096809B90120CB
:1050A00005E0BA49096809B9022000E0002070470C
:1050B00070B505462C460026002D6AD0AE49E06A40
:1050C0000968C96A88425DD2A06900F0004028B929
:1050D000A9480068C06AC0F11000A061E16A01EB54
:1050E0008101AB4A02EB81016069884201D1012054
:1050F00000E0002000283FD0201DFDF7C3FB40B991
:1051000094F82C1001208840A24909688143A148E5
:10511000016099480068C06AE06200BF94F82C10F2
:10512000012088409B49096808439A49086000BFEC
:10513000E16A01EB8101964A02EB81014868A060B7
:105140008268E260211D826851608160E16A01EB42
:1051500081018F4A02EB81026261E16A01EB810108
:105160008B4A52F82110491CE26A02EB8202884BFA
:1051700043F8221000BF03E07F480068C06AE06285
:10518000012606E07C49A06C0968C96A884200D201
:105190000126304670BD70B505462C460026002D10
:1051A0006CD075480068844201D1012000E00020E5
:1051B00050B900BF502080F31188BFF34F8FBFF369
:1051C0006F8F00BF00BFFEE7E06C50B900BF5020FA
:1051D00080F31188BFF34F8FBFF36F8F00BF00BF05
:1051E000FEE7E06C401EE064A16CE06A884245D0B6
:1051F000E06C002842D1201DFDF744FB40B994F833
:105200002C1001208840634909688143614801608E
:10521000A06CE062E06AC0F11000A06100BF94F8E9
:105220002C10012088405B490968084359490860EF
:1052300000BFE16A01EB8101554A02EB8101486838
:10524000A0608268E260211D826851608160E16A2D
:1052500001EB81014E4A02EB81026261E16A01EBDE
:1052600081014B4A52F82110491CE26A02EB82028A
:10527000474B43F8221000BF00BF0126304670BDE7
:105280002DE9F04706460F4634464FF00109002E3F
:1052900070D0E06C50B900BF502080F31188BFF38C
:1052A0004F8FBFF36F8F00BF00BFFEE7A06CB84207
:1052B00001D23D4600E0A56CE06AA8427AD0E06CDD
:1052C000012877D12C480068844201D0012000E0F9
:1052D000002050B900BF502080F31188BFF34F8FDA
:1052E000BFF36F8F00BF00BFFEE7D4F82C80E562EC
:1052F000A06900F0004010B9C5F11000A06108EBF2
:105300008801234A02EB81016069884201D10120B2
:1053100000E0002070B3201DFDF7B4FA40B994F806
:105320002C10012088401B490968814319480160FD
:1053300000BF94F82C1001208840164909680843E2
:105340001449086000BFE16A01EB8101104A02EBD9
:1053500081014868A0608268E260211D8268516016
:105360008160E16A01EB8101094A02EB810262611D
:10537000E16A11E01EE0000030000020540000202F
:1053800058000020440000204C0000206C00002049
:105390000C0200204800002001EB8101F94A52F87C
:1053A0002110491CE26A02EB8202F64B43F82210FC
:1053B00000BF00BFBDE8F087F34909688869F2497A
:1053C0000968C96AC1F11001EF4A1268916170471A
:1053D000ED49086810B1C16C491CC16470472DE9E2
:1053E000F0470446884616464FF000090CB90120E4
:1053F00000E0002050B900BF502080F31188BFF3B7
:105400004F8FBFF36F8F00BF00BFFEE7FEF741FE77
:1054100001F085F8DC480068503050F8240030B9BD
:105420000121D94800685430015506B1894601F080
:105430009DF8B9F1010F03D101213046FEF7D2FDED
:10544000FEF711FD0746B9F1010F08D13FB94FF042
:105450008050CE490860BFF34F8FBFF36F8F01F0CC
:105460005EF8C9480068503050F824507DB1B8F15A
:10547000000F06D00021C4480068503040F82410C6
:1054800005E0681EC0490968503141F82400002138
:10549000BD4800685430015501F068F82846BDE861
:1054A000F0872DE9F05F0446884691461D46DDF8F9
:1054B00028A04FF0000B0CB9012000E0002050B9EB
:1054C00000BF502080F31188BFF34F8FBFF36F8F61
:1054D00000BF00BFFEE7FEF7DCFD01F020F8AA48A0
:1054E00000685430005D022811D0A7490968503186
:1054F00001EB8400016821EA080101600121A24852
:10550000006854300155BAF1000F00D08B4601F00D
:105510002DF8BBF1010F03D101215046FEF762FDCA
:10552000FEF7A1FC0746BBF1010F08D13FB94FF0D0
:10553000805096490860BFF34F8FBFF36F8F00F024
:10554000EEFF2DB190480068503050F824002860DC
:105550008D4800685430005D022801D0002609E023
:1055600089490968503101EB8400016821EA090189
:10557000016001260021844800685430015500F084
:10558000F5FF3046BDE8F09F2DE9F05F07460D4678
:1055900016469846DDF828A04FF0010B0DB9012002
:1055A00000E0002050B900BF502080F31188BFF305
:1055B0004F8FBFF36F8F00BF00BFFEE757B900BF2B
:1055C000502080F31188BFF34F8FBFF36F8F00BF60
:1055D00000BFFEE73C4600F0A2FFBAF1000F05D085
:1055E00004F1500050F82500CAF8000004F15400FE
:1055F00010F8059002214155B8F1050F29D2DFE8D6
:1056000008F027030D171C0004F1500050F8250086
:10561000304304F1500141F825002DE004F1500021
:1056200050F82500401C04F1500141F8250023E00A
:1056300004F1500040F825601EE0B9F1020F04D0DB
:1056400004F1500040F8256001E04FF0000B13E03A
:1056500012E04F48006808B9012000E0002050B96E
:1056600000BF502080F31188BFF34F8FBFF36F8FBF
:1056700000BF00BFFEE700BF00BFB9F1010F63D15B
:1056800000BF6069D4E902128A60D4E902214A604D
:10569000211D42688A4201D1E168416000226261B5
:1056A0000168491E016000BF00BF94F82C10012062
:1056B00088403849096808433649086000BFE16AF4
:1056C00001EB81012F4A02EB81014868A0608268EA
:1056D000E260211D826851608160E16A01EB810115
:1056E000284A02EB81026261E16A01EB8101254AED
:1056F00052F82110491CE26A02EB8202214B43F866
:10570000221000BF00BFA06A08B9012000E00020FD
:1057100050B900BF502080F31188BFF34F8FBFF303
:105720006F8F00BF00BFFEE700BF17480068C06A68
:10573000E16A884207D24FF0805014490860BFF3F5
:105740004F8FBFF36F8F00BF00F010FF5846BDE8CA
:10575000F09F2DE9F84F80460D4617469946DDF833
:1057600028B001200090B8F1000F15D100BF5020E3
:1057700080F31188BFF34F8FBFF36F8F00BF00BF5F
:10578000FEE700000C0200203000002004ED00E0E5
:1057900044000020480000200DB9012000E0002056
:1057A00050B900BF502080F31188BFF34F8FBFF373
:1057B0006F8F00BF00BFFEE700F00CFF444600BF44
:1057C0005021EFF3118081F31188BFF34F8FBFF3A6
:1057D0006F8F00BF0646BBF1000F05D004F15000EB
:1057E00050F82500CBF8000004F1540010F805A093
:1057F00002214155B9F1050F29D2DFE809F027034D
:105800000D171C0004F1500050F82500384304F136
:10581000500141F825002DE004F1500050F825001A
:10582000401C04F1500141F8250023E004F1500030
:1058300040F825701EE0BAF1020F04D004F15000C8
:1058400040F8257001E00020009013E012E0E948E4
:10585000006808B9012000E0002050B900BF5020C6
:1058600080F31188BFF34F8FBFF36F8F00BF00BF6E
:10587000FEE700BF00BFBAF1010F78D1A06A08B9F6
:10588000012000E0002050B900BF502080F31188B3
:10589000BFF34F8FBFF36F8F00BF00BFFEE7D64847
:1058A0000068E0BB00BF6069D4E902128A60D4E9F5
:1058B00002214A60211D42688A4201D1E1684160AB
:1058C000002262610168491E016000BF00BF94F8B8
:1058D0002C1001208840C94909680843C74908605D
:1058E00000BFE16A01EB8101C54A02EB8101486812
:1058F000A0608268E260211D826851608160E16A77
:1059000001EB8101BE4A02EB81026261E16A01EBB7
:105910008101BB4A52F82110491CE26A00E006E00E
:1059200002EB8202B64B43F8221000BF11E000BF29
:10593000B4494868E0618268226204F11801826813
:1059400051608160AF4AA26211460968491C11602A
:1059500000BFAD49E06A0968C96A884207D90B9857
:1059600010B101210B9801600120A849086000BF17
:1059700086F3118800BF0098BDE8F88F2DE9F04745
:1059800005460E46904655B900BF502080F3118859
:10599000BFF34F8FBFF36F8F00BF00BFFEE70EB99D
:1059A000012000E0002050B900BF502080F3118892
:1059B000BFF34F8FBFF36F8F00BF00BFFEE700F054
:1059C00009FE2C4600BF5021EFF3118081F31188AE
:1059D000BFF34F8FBFF36F8F00BF074604F1540032
:1059E00010F8069002218155001F50F82600401C37
:1059F00004F1500141F82600B9F1010F78D1A06AF5
:105A000008B9012000E0002050B900BF502080F309
:105A10001188BFF34F8FBFF36F8F00BF00BFFEE74A
:105A200075480068002842D100BF6069D4E90212BD
:105A30008A60D4E902214A60211D42688A4201D16C
:105A4000E1684160002262610168491E016000BF97
:105A500000BF94F82C100120884068490968084369
:105A60006649086000BFE16A01EB8101644A02EB0C
:105A700081014868A0608268E260211D82685160EF
:105A80008160E16A01EB81015D4A02EB81026261A2
:105A9000E16A01EB81015A4A52F82110491CE26A7D
:105AA00002EB8202564B43F8221000BF11E000BF08
:105AB00054494868E0618268226204F118018268F2
:105AC000516081604F4AA26211460968491C116009
:105AD00000BF4D49E06A0968C96A884208D9B8F12F
